:1000000000730010153A0100093A01000B3A010093
:10001000113A01000D3A01000F3A0100AA30F8EF41
:10002000133A0100133A0100133A0100133A010098
:10003000133A0100133A0100731B010043C2000090
:10004000CD360100CD360100CD360100CD360100A0
:10005000CD360100CD360100CD360100CD36010090
:10006000CD360100CD360100CD360100CD36010080
:10007000CD360100CD360100CD360100CD36010070
:10008000CD360100CD360100CD360100CD36010060
:10009000CD360100CD360100CD360100CD36010050
:1000A000CD360100CD360100CD360100CD36010040
:1000B000CD360100CD360100CD360100CD36010030
:0C00C000CD360100CD360100CD36010028
:10010000E0B5002002900020019000200090012323
:1001100001225FF48021012004F0B0FD0020029054
:100120000020019000200090012301225FF40021B3
:10013000012004F0A3FD5FF48021012004F096FF6C
:100140005FF40021012004F091FF002002900020C4
:10015000019000200090012301225FF40011012092
:1001600004F08CFD002002900020019000200090FF
:10017000012301225FF48011012004F07FFD5FF470
:100180000011012004F072FF5FF48011012004F0DF
:100190006DFF0020029000200190002000900123BC
:1001A00001225FF48001012004F068FD002002902C
:1001B0000020019000200090012301225FF4000143
:1001C000012004F05BFD5FF48001012004F04EFF8C
:1001D0005FF40001012004F049FF0020029000209C
:1001E000019000200090012301225FF000710120A6
:1001F00004F044FD002002900020019000200090B7
:10020000012301225FF08071012004F037FD5FF0CF
:100210000071012004F02AFF5FF08071012004F0DA
:1002200025FF002002900020019000200090012373
:1002300001225FF00061012004F020FD0020029007
:100240000020019000200090012301225FF08051E6
:10025000012004F013FD00200290002001900020F6
:100260000090012301225FF00071032004F006FDDD
:100270000020029000200190002000900123012224
:100280005FF08061012004F0F9FC5FF00061012063
:1002900004F0ECFE5FF08051012004F0E7FE5FF017
:1002A0000071032004F0E2FE5FF08061012004F0A1
:1002B000DDFE00200290002001900020009001232C
:1002C00001225FF08061032004F0D8FC002002903E
:1002D0000020019000200090012301225FF00051D6
:1002E000012004F0CBFC00200290002001900020AF
:1002F0000090012301224FF48061012004F0BEFC34
:100300000020029000200190002000900123012293
:100310004FF40071012004F0B1FC5FF08061032014
:1003200004F0A4FE5FF00051012004F09FFE4FF4A2
:100330008061012004F09AFE4FF40071012004F066
:1003400095FE0020029000200190002000900223E2
:1003500000221021002004F091FC002002900020D7
:10036000019000200090022300222021002004F0B0
:1003700085FC0020029000200190002000900223C4
:1003800000224021002004F079FC0020029000208F
:10039000019000200090022300228021002004F020
:1003A0006DFC0020029000200190002000900223AC
:1003B00000224FF48071002004F060FC00200290C5
:1003C0000020019000200090022300224FF40071D1
:1003D000002004F053FC0020029000200190002037
:1003E0000090022300220221012004F047FC00209B
:1003F000029000200190002000900223002204219E
:10040000022004F03BFC002002900020019000201C
:100410000090022300220821022004F02FFC00207B
:100420000290002001900020009002230022102161
:10043000022004F023FC0020029000200190002004
:100440000090022300222021022004F017FC00204B
:100450000290002001900020009002230022402101
:10046000022004F00BFC00200290002001900020EC
:100470000090022300228021022004F0FFFB0020D4
:100480000290002001900020009002230022102101
:10049000012004F0F3FB00200290002001900020D6
:1004A0000090022300224FF48071022004F0E6FB4A
:1004B00000200290002001900020009002230022E2
:1004C0004FF40071022004F0D9FB002002900020BC
:1004D000019000200090022300225FF48031002070
:1004E00004F0CCFB0020029000200190002000903E
:1004F000022300224FF40041002004F0BFFB002043
:1005000002900020019000200090022301225FF45D
:100510000031002004F0B2FB002002900020019086
:1005200000200090022301225FF48021002004F0CB
:10053000A5FB0020029000200190002000900223E3
:1005400000224FF48071012004F098FB00200290FB
:100550000020019000200090022300225FF400217F
:10056000002004F08BFB002002900020019000206E
:100570000090022300225FF48011002004F07EFB33
:100580000020029000200190002000900223002211
:100590005FF40011002004F071FB002002900020A5
:1005A000019000200090022300225FF480010020CF
:1005B00004F064FB002002900020019000200090D5
:1005C000022300224FF40061022004F057FB0020B8
:1005D00002900020019000200090022300224FF49E
:1005E0008051022004F04AFB00200290002001907C
:1005F00000200090022300225FF40001002004F09C
:100600003DFB00200290002001900020009002237A
:1006100000225FF08071002004F030FB0020029087
:100620000020019000200090022300225FF0007162
:10063000002004F023FB0020029000200190002005
:100640000090022300225FF08061002004F016FB7E
:100650000020029000200190002000900123012240
:100660004FF48041012004F009FB0020029000209B
:10067000019000200090012301224FF4004101204D
:1006800004F0FCFA0020029000200190002000906D
:10069000012301225FF40031012004F0EFFA4FF44E
:1006A0008041012004F0CCFC4FF40041012004F013
:1006B000C7FC5FF40031012004F0C2FC002002906E
:1006C0000020019000200090022300224FF480615E
:1006D000022004F0D3FA07BD10B500200400E4B2F4
:1006E000022C32DADFF8180DE4B20A2101FB040013
:1006F0008079002822D0DFF8080DE4B20A2101FB3E
:1007000004004088002813D02000C0B200F059FA3D
:10071000DFF8EC0CE4B20A2101FB04004088401E23
:10072000DFF8DC1CE4B20A2202FB041148800AE074
:1007300001212000C0B200F0C7F904E0012120002F
:10074000C0B200F0C1F9641CC9E710BD10B50020AB
:100750000400E4B2042C1EDADFF8740DE4B20A21BE
:1007600001FB04008079002813D0DFF8640DE4B2A7
:100770000A2101FB04004088DFF8541DE4B20A227C
:1007800002FB04118988884203D02000C0B200F027
:1007900038F9641CDDE710BD10B50400E4B2002C8C
:1007A00005D0022C19D00DD3032C21D02AE05FF400
:1007B0008021012004F05AFC5FF40021012004F0A4
:1007C0003FFC1FE05FF40011012004F04FFC5FF4D8
:1007D0008011012004F034FC14E05FF4800101205A
:1007E00004F044FC5FF40001012004F029FC09E05E
:1007F0005FF00071012004F039FC5FF0807101208E
:1008000004F01EFC10BD10B50400E4B2002C05D0AD
:10081000022C19D00DD3032C21D02AE05FF48021C3
:10082000012004F00DFC5FF40021012004F01EFC07
:100830001FE05FF40011012004F002FC5FF480115E
:10084000012004F013FC14E05FF48001012004F0A7
:10085000F7FB5FF40001012004F008FC09E05FF001
:100860000071012004F0ECFB5FF08071012004F0C6
:10087000FDFB10BD2DE9F04104000D005FF0000804
:10088000E4B2042C80F2BB80EDB2002D28D0002011
:10089000DFF83C1CE4B20A2202FB0411887100203C
:1008A000070000200600F6B2042E0DDADFF8200C57
:1008B000F6B20A2101FB06008079002802D001204F
:1008C000070001E0761CEEE7FFB2002F3AD1FF20CF
:1008D000DFF8C41C08600020DFF8C01C086031E0AD
:1008E00004F030FC804604F09AFC0020DFF8E01BA6
:1008F000E4B20A2202FB04118871002007000020E4
:100900000600F6B2042E0DDADFF8C40BF6B20A21A7
:1009100001FB06008079002802D00120070001E0D9
:10092000761CEEE7FFB2002F07D1FF20DFF8681C2E
:1009300008600020DFF8641C086004F084FC404676
:1009400004F004FCE4B2002C05D0022C19D00DD325
:10095000032C21D02BE05FF48021012004F086FBE2
:100960005FF40021012004F081FB48E05FF40011F6
:10097000012004F07BFB5FF48011012004F076FB82
:100980003DE05FF48001012004F070FB5FF40001A2
:10099000012004F06BFB32E05FF00071012004F0F5
:1009A00065FB5FF08071012004F060FB27E05FF4DD
:1009B0008021012004F05AFB5FF40021012004F0A3
:1009C00055FB5FF40011012004F050FB5FF480112F
:1009D000012004F04BFB5FF48001012004F046FB92
:1009E0005FF40001012004F041FB5FF00071012081
:1009F00004F03CFB5FF08071012004F037FBBDE8A0
:100A0000F08110B50400E4B2002C05D0022C0FD008
:100A100008D3032C12D016E05FF48021012004F0EB
:100A20003BFB10E05FF40011012004F035FB0AE00D
:100A30005FF48001012004F02FFB04E05FF00071FF
:100A4000012004F029FB10BD10B50400E4B2002C15
:100A500002D0012C06D00AE05FF00061012004F012
:100A600005FB04E05FF08061032004F0FFFA10BD95
:100A700010B50400E4B2002C02D0012C06D00AE02C
:100A80005FF00061012004F0DBFA04E05FF08061B8
:100A9000032004F0D5FA10BD10B50400E4B2002C18
:100AA00002D0012C06D00AE05FF00071032004F0B0
:100AB000C7FA04E04FF48061012004F0C1FA01207C
:100AC000DFF8301D086010BD2DE9F04104000D0075
:100AD0005FF00008E4B2022C71DAEDB2002D24D0F0
:100AE0000020DFF81C19E4B20A2202FB041188710D
:100AF0000020070000200600F6B2022E0DDADFF813
:100B00000009F6B20A2101FB06008079002802D014
:100B10000120070001E0761CEEE7FFB2002F32D182
:100B20000020DFF8D01C08602DE004F00BFB8046AD
:100B300004F075FB0020DFF8C818E4B20A2202FBBB
:100B4000041188710020070000200600F6B2022E72
:100B50000DDADFF8AC08F6B20A2101FB0600807955
:100B6000002802D00120070001E0761CEEE7FFB26A
:100B7000002F03D10020DFF87C1C086004F063FB29
:100B8000404604F0E3FAE4B2002C02D0012C06D077
:100B90000BE05FF00071032004F068FA0FE04FF4FF
:100BA0008061012004F062FA09E05FF00071032027
:100BB00004F05CFA4FF48061012004F057FABDE8BC
:100BC000F08110B50400E4B2002C02D0012C06D054
:100BD0000AE05FF08051012004F05EFA04E05FF06B
:100BE0000051012004F058FA10BD2DE9F041040035
:100BF0000D0016001F005FF00008FFB2022F5FDA41
:100C0000E4B23C2C01DA3C20040000213800C0B2E0
:100C1000FFF75AFF04F096FA804604F000FBDFF875
:100C2000E007FFB20A2101FB07004470DFF8D0079C
:100C3000FFB20A2101FB07004580DFF8C407FFB2BD
:100C40000A2101FB07008580DFF8B407FFB20A2103
:100C500001FB070006700120DFF8A417FFB20A228B
:100C600002FB07118871ADB2E4B204FB05F04FF44A
:100C70007A71B0FBF1F0801CDFF88417FFB20A2212
:100C800002FB07110881F6B2002E04D13800C0B271
:100C9000FFF7DAFE03E03800C0B2FFF7E9FE0020FC
:100CA000DFF8541B0860E4B2DFF8240D046038005C
:100CB000C0B2FFF7F1FE04F0C6FA404604F046FA6F
:100CC000BDE8F0812DE9F04782B005000E00170065
:100CD00098460A9C5FF0000AE4B2042C80F28280FD
:100CE000ADB2B5F5FA6F02DA4FF4FA600500B6B2AC
:100CF000B6F52F7F02DA4FF42F7006000021200096
:100D0000C0B2FFF7B7FD04F01DFA824604F087FA7F
:100D1000DFF88C08E4B20A2101FB04000078814668
:100D200004F091FA504604F011FA5FFA89F9FFB223
:100D3000B94504D000AA00211E2004F00BFB04F0EA
:100D400001FA824604F06BFADFF85408E4B20A2193
:100D500001FB04004580DFF84808E4B20A2101FBEA
:100D600004008680DFF83808E4B20A2101FB0400A1
:100D70000770DFF82C08E4B20A2101FB0400A0F898
:100D800008800020DFF84C1C0860ADB2DFF8480C8A
:100D90000560B6B2DFF8440C0660ADB2B6B2B5423B
:100DA00007D0FF20DFF8F01708600920DFF8EC1704
:100DB0000860FFB2002F04D12000C0B2FFF7ECFCA6
:100DC00003E02000C0B2FFF71EFD0120DFF8D017BE
:100DD000E4B20A2202FB0411887104F034FA50468E
:100DE00004F0B4F9BDE8F38710B500200400E4B2C4
:100DF000042C1FDADFF8D806E4B20A2101FB040054
:100E0000008900280FD0DFF8C806E4B20A2101FBF0
:100E100004000089401EDFF8B816E4B20A2202FB83
:100E20000411088104E001212000C0B2FFF722FD77
:100E3000641CDCE700200400E4B2022C1FDADFF8B7
:100E4000BC09E4B20A2101FB0400008900280FD08C
:100E5000DFF8A809E4B20A2101FB04000089401E62
:100E6000DFF89819E4B20A2202FB0411088104E0B9
:100E700001212000C0B2FFF727FE641CDCE710BD93
:100E80007FB500F00BF905F0C3F9060005F0C9F9CC
:100E900000282AD0DFF8480B0078C0F30010C0B259
:100EA00000281CD1F6B2042E02D103F05DFD16E03D
:100EB000F6B2002E02D103F0ABFD10E0F6B2012E27
:100EC00002D103F0E7FD0AE0F6B2022E02D103F0F0
:100ED00023FE04E0F6B2032E01D103F046FE02AA7F
:100EE00000210A2004F036FACDE7DFF8F80A00689E
:100EF00005F01EFB02A8009003AB0DF106020021D5
:100F0000002005F03FFD0500002DBCD0BDF8060017
:100F1000012822D128788DF804009DF80400632868
:100F20000BD100208DF80400012201A9DFF8D00DBB
:100F300005F048FA00F0B2F8A8E09DF80400202877
:100F400040F0A480F6B2012E03D1002001F0AAFCEB
:100F50009CE0002002F0CDF898E0BDF806004028A3
:100F600040F0948005F054F906002C00E078102839
:100F70003AD011284FD0132836D020280AD0212863
:100F80001DD022284DD023286AD038286FD0392888
:100F900075D07BE0F6B2032E03D1200000F024FDD3
:100FA0000CE0F6B2012E03D1200001F07BFC05E03D
:100FB000F6B2022E02D1200002F09BF866E0F6B2F3
:100FC000032E03D1200000F0ADFE0CE0F6B2012E9E
:100FD00003D1200001F064FE05E0F6B2022E02D13A
:100FE000200002F089F951E0F6B2042E07D12079F1
:100FF000B0F13001C9B2200002F046FE0AE005F06F
:1010000007F9012803D005F003F9002802D12000D8
:1010100001F034F93AE0DFF8EC0C4078DFF8E81C36
:101020000870F6B2042E03D1200003F057F816E042
:10103000F6B2032E03D1200000F0C4FF0FE0F6B299
:10104000012E02D0F6B2002E03D1200001F0F5FAF5
:1010500005E0F6B2022E02D1200002F092FA15E06D
:10106000F6B2042E02D1200003F0ECF80EE0F6B246
:10107000022E03D10021200002F021FB06E0F6B28F
:10108000022E03D10021200002F0C4FB0DF10A0260
:101090002900DFF8780C06F0C4FFF4E62DE9F04FE4
:1010A00083B000275FF000085FF0000900208DF892
:1010B0000400012201A9DFF8480C05F083F905F0CE
:1010C000A7F882465FFA8AFABAF1010F00F08C8124
:1010D0005FFA8AFABAF1000F00F086815FFA8AFAA5
:1010E000BAF1030F40F09F800022012140F2DC5052
:1010F00000F088F907F064F98346DFF8140C007EED
:101100003BFA00F0DFF8081C897E3BFA01F111F090
:101110000301400849418DF804109DF8040000289F
:1011200001D00120070000220121232000F0D2F984
:1011300000220021232000F0CDF9DFF8D80B4088F1
:101140000400DFF8D40BA4B2B0FBF4F00500DFF824
:10115000CC0B40780600012000F0E2F9002807D10E
:101160000121012000F050FA002801D10120804621
:101170005FFA88F8B8F1000F25D1F6B200962B007F
:101180009BB20022210089B24FF4FA60FFF79AFD6A
:101190000121681D80B200F01EFA8DF805000021C3
:1011A0003000C0B2FFF766FB9DF80500002808D0AC
:1011B0000121012000F028FA002804D101208046F6
:1011C00001E001208046FFB2002F0DD05FFA88F8C1
:1011D000B8F1000F08D0DFF8480B007850F060003D
:1011E000DFF83C1B0870FFE0FFB2002F0AD0DFF8E9
:1011F000300B007810F09F0050F02000DFF8201B2B
:101200000870F1E05FFA88F8B8F1000F00F0EC80A8
:10121000DFF80C0B007810F09F0050F04000DFF872
:10122000001B0870E0E05FFA8AFABAF1020F40F0A2
:10123000D9800022012140F2DC5000F0E3F807F0F1
:10124000BFF88346DFF8C80A007E3BFA00F0DFF8FB
:10125000C01A897E3BFA01F111F0030140084941AF
:101260008DF804109DF80400002801D0012007002B
:10127000DFF8A00A40880400DFF89C0AA4B2B0FBA3
:10128000F4F00500DFF8940A40780600012000F031
:1012900064F900280CD0012000F042F9002807D1A1
:1012A0000121012000F0B0F9002801D10120804681
:1012B0005FFA88F8B8F1000F29D1F6B200962B003A
:1012C0009BB20022210089B24FF4FA60FFF7FAFCCA
:1012D0000121681D80B200F07EF98DF80500002123
:1012E0003000C0B2FFF7C6FA4FF47A7005F030F95B
:1012F0009DF80500002808D00121012000F084F9A4
:10130000002804D10120804601E001208046DFF85A
:10131000040A00880400DFF8000AA4B2B0FBF4F06D
:101320000500DFF8F80900780600002000F0F8F862
:10133000002817D0F6B200962B009BB200222100A5
:1013400089B24FF4FA60FFF7BDFC0121681D80B23D
:1013500000F028F98DF8050000213000C0B2FFF739
:1013600089FA07E00021012000F04EF9002801D1A0
:1013700001208146FFB2002F12D05FFA88F8B8F141
:10138000000F0DD05FFA89F9B9F1000F08D0DFF82E
:101390009009007850F06000DFF8841908701CE0B4
:1013A000FFB2002F0AD0DFF87809007810F09F0014
:1013B00050F02000DFF8681908700EE05FFA88F836
:1013C000B8F1000F09D0DFF85809007810F09F003D
:1013D00050F04000DFF8481908700120DFF8D81BF2
:1013E000087001E004F014FF01208DF804000122D0
:1013F00001A9DFF80C0904F0E5FFBDE8F78F000054
:10140000946F00102DE9F84F04000D001600DFF86E
:10141000AC0BF6B216F80080DFF8A40BF6B216F8A3
:1014200000905FF0000B4B46DBB22A00D2B22100E5
:1014300089B24046C0B2FFF7D8FB03F083FE834673
:1014400003F0EDFEDFF8B4035FFA89F90A2101FB2E
:1014500009000089824603F0F6FE584603F076FE46
:1014600000200700FFB2002F24D100AA00210A208B
:1014700003F070FF03F066FE834603F0D0FEDF4802
:101480005FFA89F90A2101FB09004088002801D18F
:101490000120070003F0D7FE584603F057FE1FFA5D
:1014A0008AFABAF1000F02D0BAF1010ADAE7022093
:1014B0000700D7E700214846C0B2FFF705FBFFB29F
:1014C000012F01D1012000E00020BDE8F28F0000D3
:1014D000006F0010F0B583B004000D001600DFF8B7
:1014E0003C08F6B2375CFFB2009723009BB22A009B
:1014F000D2B2DFF82008FFB230F817104FF4FA60CC
:10150000FFF7E0FB01AA0021A4B20A2000FB04F0CF
:1015100003F020FF00213800C0B2FFF7ABF9F7BDA0
:10152000F8B50400E4B2042C01DB002014E0200034
:10153000C0B204F04EFE0600DFF8D407F6B210F891
:101540003600050006F0C4FF070037FA05F0C007B3
:1015500001D5012000E00020F2BDF8B50400E4B29E
:10156000042C01DB002015E02000C0B204F031FEA5
:101570000600DFF89C07F6B210EBC60040780500C5
:1015800006F0A6FF070037FA05F0C00701D50120D5
:1015900000E00020F2BD0000008001400480014016
:1015A000006F001070B582B004000D002600280006
:1015B000C0B2FFF7B5FF00280BD100AA00210A2016
:1015C00003F0C8FEB6B2002E01D0761EEFE7002071
:1015D00000E0012076BD70B582B004000D00260049
:1015E0002800C0B2FFF7B9FF00280BD100AA0021E4
:1015F0000A2003F0AFFEB6B2002E01D0761EEFE750
:10160000002000E0012076BD2DE9F84304000D0024
:10161000DFF80807EDB215F800805FF00009DFF889
:10162000F4065FFA88F830F8180007002800C0B206
:10163000FFF776FF002801D0012033E0E4B2002C50
:101640000DD15FFA88F8CDF80080502301223900CF
:1016500089B24FF4FA60FFF735FB012022E04846DB
:1016600010F10109C0B203281BDA5FFA88F8CDF83F
:10167000008050230122390089B24FF4FA60FFF74D
:1016800021FB2900C9B24620FFF78CFF060000218C
:101690004046C0B2FFF7EEF8F6B2002EDFD00120D0
:1016A00000E00020BDE8F2832DE9F04383B004F0B0
:1016B000AFFD814606F084FEDFF8A81B086106F046
:1016C0002DFEDFF8A40B0068DFF8981B49698842FB
:1016D00000F08E80DFF8380600788DF80400DFF81F
:1016E0003006007A8DF80500DFF82406007C8DF8BE
:1016F0000600DFF81C0640788DF80000DFF81006C1
:10170000407A8DF80100DFF80806407C8DF8020071
:1017100000200400E4B2032C64DA01A8E4B2205CE7
:101720000500DFF8400B4069E84010F00100C0B24E
:10173000002816D0DFF8300B0068E84010F00100F8
:10174000C0B200280DD12000C0B204F04DFD80468B
:1017500001214046C0B2FFF78DF80120DFF80C1BD5
:10176000087000A8E4B2205C0600DFF8F80A4069BF
:10177000F04010F00100C0B2002816D0DFF8E80AEF
:101780000068F04010F00100C0B200280DD1200028
:10179000C0B204F029FD804601214046C0B2FFF7E7
:1017A00069F80220DFF8C41A0870DFF86405E4B2B3
:1017B00010EBC40080790700DFF8A80A4069F84000
:1017C000C0070DD4DFF8A80AE4B210EB4410807B08
:1017D00010F0F700DFF8981AE4B211EB44118873A7
:1017E000641C97E7DFF87C0A4069DFF87C1A086020
:1017F000BDE8F7830480004008800040946F00102B
:101800002DE9F04F85B08346DFF8100590F8008091
:10181000DFF8AC0790F80090DFF8A0075FFA89F9CD
:1018200019F800008DF80400DFF8E8045FFA88F882
:1018300030F81800ADF80A00DFF8380A007E8DF89D
:101840000700DFF8300A807E8DF80600DFF8240AF2
:10185000C07E8DF805005FF0000A5FFA8BFBBBF1DC
:10186000010F3AD106F034FE0700DFF8080A007EC7
:1018700037FA00F0DFF8FC19897E37FA01F111F030
:101880000301400849418DF808109DF80800002820
:1018900023D0002201214FF4E160FFF7B3FD0028BF
:1018A00002D00320060001E0042006009DF8050098
:1018B00037FA00F010F00100C0B200280AD09DF8FD
:1018C000060037FA00F010F00100C0B2002801D184
:1018D000052006003000C0B277E0142005009DF816
:1018E00004004FF4E16148434FF4FA71B0FBF1F0AA
:1018F000001D04005FFA88F8CDF80080462301221D
:10190000BDF80A104FF4FA60FFF7DCF94B46DBB282
:1019100000224FF4E1619DF80400FFF766F9002012
:101920000600F6B2002E32D103AA0021052003F0F2
:1019300011FDADB2002D01D06D1EF2E706F0C8FD1D
:1019400007009DF8070037FA00F0C00701D5012015
:10195000060003F0F7FB824603F061FCDFF8A40BFE
:101960005FFA89F90A2101FB09004088002801D1AA
:101970000320060003F067FC504603F0E7FBA4B227
:10198000002C01D0641ECCE704200600C9E700212A
:101990004046C0B2FEF76EFF00214846C0B2FFF7D6
:1019A00093F806F00DFD0700DFF8C808007E37FA4F
:1019B00000F0C00701D501200600002200214FF4ED
:1019C000C870FFF787FD3000C0B205B0BDE8F08FEA
:1019D0001880004008800140188001401C800140B0
:1019E00014700010EC6F0010F0B58BB004000027ED
:1019F00000200500002C01D1012005000020070077
:101A00007F1CFFB2042F0FDA3800C0B2FFF7F8FED8
:101A10000600F6B2012E07D0F6B2042E02D0F6B2BE
:101A2000052EEDD164200700FFB2042F14DB5320F4
:101A30008DF80800EDB201950120009002ABA2786C
:101A400061785E2007F06BF91323192232210420FC
:101A500007F077FF00200AE0EDB20195002000902A
:101A60000023A27861785F2007F059F901200BB0BC
:101A7000F0BD2DE9F04F85B000250026A74840783D
:101A80008DF80400DFF838050778DFF83005FFB27D
:101A9000385C8DF805009F489DF8041030F811005F
:101AA000ADF810009C48BDF81010B0FBF1F0ADF897
:101AB0000E009748C07E8DF80C00954890F81A806B
:101AC0009348007E8DF80700914840788DF8060015
:101AD0005FF000099DF805004FF4167148434FF47C
:101AE000FA71B0FBF1F0001D82463B00DBB2002230
:101AF0004FF416719DF80500FFF777F800200400F9
:101B0000E4B2002C42D10DF1120200210A2003F0B0
:101B100021FC06F0DDFC0290029830FA08F0C007C4
:101B200004D5EDB2002D01D101200500029830FA54
:101B300008F0C00704D4EDB2002D01D0012006004A
:101B400003F000FB814603F06AFBDFF8B809FFB23F
:101B50000A2101FB07004088002807D1F6B2002EB9
:101B600002D00120040001E00220040003F06BFB1E
:101B7000484603F0EBFA1FFA8AFABAF1000F02D0D6
:101B8000BAF1010ABCE704200400B9E700213800DB
:101B9000C0B2FEF799FF06F013FC0290029830FAEB
:101BA00008F010F00100C0B2002808D102989DF89A
:101BB0000710C84010F00100C0B2002801D000207A
:101BC0009AE014208346BDF80E004000001D8246B6
:101BD0009DF804000090BDF80E300022BDF81010F2
:101BE0004FF4FA60FFF76EF800200400E4B2002C16
:101BF00032D10DF112020021052003F0ABFB1FFAD8
:101C00008AFABAF1000F01D0BAF1010A5FFA8BFB30
:101C1000BBF1000F02D0BBF1010BE7E706F058FC67
:101C2000029002989DF80610C840C0070CD50DF12F
:101C300012020021142003F08DFB00219DF8040006
:101C4000FEF718FE012004001FFA8AFABAF1000F0D
:101C5000CCD102200400C9E700219DF80400FEF762
:101C600009FE0020040006F033FC029002A802984E
:101C700030FA08F010F00100C0B2002836D1029806
:101C80009DF80C10C84010F00100C0B200282DD102
:101C900002A801200400DFF8D805807BC0F3001003
:101CA000C0B2002822D1DFF8C805807B50F01000B8
:101CB000DFF8BC158873DFF8B8054068DFF8B015A9
:101CC0004861DFF8AC050078DFF8A4150876DFF886
:101CD000A0050078401CDFF8981548760820DFF84A
:101CE000901588760021002008F04FF9012101208D
:101CF000FFF78AFC2000C0B205B0BDE8F08F0000FD
:101D0000B0650010C06E0010EB700010E86D0010A0
:101D1000286F0010D86F001000710200D06F001003
:101D2000207000102DE9F04F8DB004000025DFF881
:101D3000440590F803B0DFF83C05877EDFF83405F2
:101D400090F81B809E4890F800909C4890F800A066
:101D500000200600002C01D10120060001210120F5
:101D6000FFF752FC00280ED160208DF81000F6B26B
:101D700001960120009004ABA27861785E2006F005
:101D8000CEFF012015E106F0A3FB0390039830FA83
:101D90000BF0C0070ED444208DF81000F6B2019667
:101DA0000120009004ABA27861785E2006F0B7FFB6
:101DB0000120FEE0DFF8B804807BC0F38000C0B2F1
:101DC00000280ED164208DF81000F6B20196012093
:101DD000009004ABA27861785E2006F0A0FF01209D
:101DE000E7E0DFF88C04007C00280ED03B208DF863
:101DF0001000F6B201960120009004ABA278617841
:101E00005E2006F08CFF0220D3E0DFF86404007847
:101E1000DFF85C14497888420ED336208DF8100024
:101E2000F6B201960120009004ABA27861785E20A2
:101E300006F075FF0120BCE00398DFF83814097E36
:101E4000C8400399DFF82C24927ED14011F00301A1
:101E5000400849418DF808109DF8080000280ED16F
:101E600042208DF81000F6B201960120009004ABDC
:101E7000A27861785E2006F052FF022099E0DFF838
:101E8000F003807B10F0EF00DFF8E413887300208C
:101E900005006D1CEDB2042D3FDAFFF7EAFD0028C6
:101EA00022D006F015FB039003A80398F84010F029
:101EB0000100C0B2002807D1039830FA08F010F0F2
:101EC0000100C0B200280ED003A8022008F07CFD5B
:101ED0000DF10A020021642003F03CFA06F0F8FA42
:101EE000039003A8F1E718E0002143F2467008F0E0
:101EF000E2F84B46DBB2012214215046C0B2FEF795
:101F000074FE0DF10A020021C82003F023FA00211B
:101F10004846C0B2FEF7D8FDBBE7EDB2042D34DA77
:101F2000F6B20196002000900023A27861785F202D
:101F300006F0F5FEDFF83803807B10F0DF00DFF8F5
:101F400030138873DFF82803807BC0B2C009C0B2A9
:101F5000002818D0DFF81803C07A042803DB00201B
:101F6000DFF80C13C8720023DFF8F009DFF8001364
:101F7000C97A0A5CDFF8E409DFF8F412C97A095C6F
:101F8000022007F0DEFC002013E052208DF8100044
:101F9000F6B201960120009004ABA27861785E2031
:101FA00006F0BDFE132319223221042007F0C9FCDC
:101FB00001200DB0BDE8F08FE9700010CE70001068
:101FC000CC70001070B586B004000026002005001B
:101FD000002C01D101200500761CF6B2042E03DA94
:101FE00000F092FA0028F7D006F050FDF6B2042E69
:101FF0000BDAEDB20195002000900023A278617801
:102000005F2006F08CFE012013E054208DF80800BC
:10201000EDB201950120009002ABA27861785E20BC
:1020200006F07DFE132319223221042007F089FCDB
:10203000002006B070BD2DE9F04F85B000208DF86E
:10204000090000240025DFF84C0C0678DFF8480C66
:102050000778DFF8480CFFB2385C8DF80800864836
:10206000F6B230F81600ADF80C008248007E8DF80C
:1020700007008048807E8DF806000A2083460A20EB
:1020800080469DF808004FF4167148434FF47A716A
:10209000B0FBF1F00A3082465FF00009F6B200961C
:1020A00096230122BDF80C104FF4FA60FEF70AFEE9
:1020B0003B00DBB201224FF496619DF80800FEF769
:1020C00094FD00208DF8050000208DF804009DF897
:1020D0000400002876D10DF10A0200210A2003F045
:1020E00039F95FFA8AFABAF1000F01D0BAF1010AA0
:1020F0005FFA8BFBBBF1000F02D0BBF1010BE6E7EF
:1021000006F0E6F9049004989DF80710C840C0074F
:102110000BD500213000C0B2FEF7ACFB9DF80500E6
:10212000002802D101208DF805005FFA88F8B8F187
:10213000000F24D104989DF80610C840C00701D5AF
:102140000120040004989DF80710C840C00706D578
:1021500000210020FEF7B8FC01208DF8090004984A
:102160009DF80610C840C0070BD4E4B2002C08D07C
:1021700000210020FEF7A8FC0120050001E0B8F1D5
:10218000010802F0DFFF814603F049F89DF80900DD
:10219000002802D1EDB2002D03D001208DF80400FB
:1021A0000AE0D848FFB20A2101FB07004088002856
:1021B00002D102208DF8040003F045F8484602F0F1
:1021C000C5FF84E700213800C0B2FEF77DFC9DF812
:1021D0000500002806D13100C9B26420FFF7E2F9FA
:1021E0008DF8050000213000C0B2FEF743FB0DF171
:1021F0000A0200210A2003F0ADF89DF8040002282D
:1022000001DB00202BE01A48807BC0F30010C0B235
:10221000002823D11648807B50F0100014498873A1
:102220000021802007F04FFE1148406810494861A6
:102230000F4800780E4908760D480078401E0C497A
:10224000487608200A4988760021002007F09DFE84
:102250000DF10A0200210A2003F07CF8012005B0EC
:10226000BDE8F08F7C6F001030700010F07000102F
:10227000F06C0010286F0010D86F00102DE9F043AB
:102280008BB004005FF00009DFF8780C90F8038051
:1022900000200500002C01D101200500002081460E
:1022A0000020070019F101095FFA89F9B9F1040F5B
:1022B00065DA02F059FA0700FFB2002F05D102AA31
:1022C00000210A2003F046F859E0FFB2012F1AD18D
:1022D00041208DF80C00EDB201950120009003AB78
:1022E000A27861785E2006F01AFD0A208DF80C00B5
:1022F00000208DF80D00022203A9DFF80C0C04F079
:1023000061F80020FAE0FFB2032F1AD145208DF8C2
:102310000C00EDB201950120009003ABA27861782A
:102320005E2006F0FCFC0A208DF80C0001208DF8E0
:102330000D00022203A9DFF8D00B04F043F80020BF
:10234000DCE0FFB2042FADD153208DF80C00EDB2CC
:1023500001950120009003ABA27861785E2006F021
:10236000DEFC0A208DF80C0002208DF80D00022200
:1023700003A9DFF8940B04F025F80020BEE05FFA13
:1023800089F9B9F1040F14DB53208DF80C00EDB27C
:1023900001950120009003ABA27861785E2006F0E1
:1023A000BEFC132319223221042007F0CAFA0020B0
:1023B000A4E006F08DF8060036FA08F0C0070ED447
:1023C00044208DF80C00EDB201950120009003AB84
:1023D000A27861785E2006F0A2FC00208EE0DFF893
:1023E000180E807BC0F38000C0B200280ED164209C
:1023F0008DF80C00EDB201950120009003ABA2789E
:1024000061785E2006F08BFC002077E0DFF8E80DB5
:10241000007C00280ED03B208DF80C00EDB2019519
:102420000120009003ABA27861785E2006F077FC73
:10243000002063E0DFF8C00D007800280ED1632093
:102440008DF80C00EDB201950120009003ABA2784D
:1024500061785E2006F063FC00204FE0DFF8980D05
:10246000807B10F0EF00DFF8901D8873002081461C
:1024700019F101095FFA89F9B9F1040F19DA06F0C7
:1024800027F8060036FA08F0C0070ED444208DF86D
:102490000C00EDB201950120009003ABA2786178A9
:1024A0005E2006F03CFC002028E0FFF7C4FD002879
:1024B000DED05FFA89F9B9F1040F14DB53208DF8EF
:1024C0000C00EDB201950120009003ABA278617879
:1024D0005E2006F024FC132319223221042007F089
:1024E00030FA00200AE0EDB20195002000900023B0
:1024F000A27861785F2006F012FC01200BB0BDE8E5
:10250000F0830000946F00102DE9F04F83B0002697
:10251000A0275FF00008DFF8EC09007E8DF80100CD
:10252000DFF8E00990F81A90DFF870075FFA88F892
:1025300018F800008DF800005FF0000B01220DF18B
:102540000201202008F0CBFB002806D09DF80200F5
:10255000002802D14FF4FA700700BFB29DF80000C6
:1025600000FB07F04FF47A71B0FBF1F0801C82465B
:102570004346DBB20122390089B29DF80000FEF724
:1025800034FB00200400E4B2002C34D105F0A0FF9D
:10259000050035FA09F0C00701D40120060002F059
:1025A000D1FD834602F03BFEDFF8480D5FFA88F864
:1025B0000A2101FB08004088002807D1F6B2002E4E
:1025C00002D00120040001E00220040002F03BFEE2
:1025D000584602F0BBFD5FFA8AFABAF1000F02D04A
:1025E000BAF1010A01E00420040001AA00210A2036
:1025F00002F0B0FEC7E700214046C0B2FEF764FA21
:10260000E4B2022C16DB05F063FF05009DF8010023
:1026100035FA00F010F00100C0B2002808D035FAF9
:1026200009F010F00100C0B2002801D1012002E041
:10263000002000E00120BDE8FE8FF0B587B0040067
:10264000002500200600002C01D10120060005F025
:102650003FFF0700380001F02FFF00280ED1422075
:102660008DF80800F6B201960120009002ABA27826
:1026700061785E2006F053FB00202AE06D1CEDB26D
:10268000042D03DAFFF740FF0028F7D0EDB2042D48
:102690000BDAF6B20196002000900023A278617850
:1026A0005F2006F03CFB012013E054208DF8080069
:1026B000F6B201960120009002ABA27861785E200C
:1026C00006F02DFB132319223221042007F039F9DB
:1026D000002007B0F0BD2DE9F84F00260027DFF8F5
:1026E000B80590F80080DFF8B4055FFA88F818F8AC
:1026F00000008DF80000DFF80C08007E8DF8010066
:10270000DFF8000890F81A905FF0000B05F0E0FE8B
:10271000050035FA09F0C0075ED59DF800004FF4BA
:10272000966148434FF4FA71B0FBF1F0801C824689
:102730004346DBB200224FF496619DF80000FEF79D
:1027400054FA00200400E4B2002C40D105F0C0FE91
:10275000050035FA09F0C0070CD40DF10202002182
:10276000142002F0F7FD00214046C0B2FEF7ACF99C
:102770000120060002F0E6FC834602F050FDF6B2AE
:10278000002E02D0012004000BE0DFF8680B5FFA96
:1027900088F80A2101FB08004088002801D10220A6
:1027A000040002F050FD584602F0D0FC5FFA8AFAAD
:1027B000BAF1000F02D0BAF1010A01E004200400CE
:1027C0000DF102020021052002F0C4FDBBE700214B
:1027D0004046C0B2FEF778F9E4B2022C01DB0020DB
:1027E0005EE09DF800004FF4966148434FF4FA71A3
:1027F000B0FBF1F0801C82464346DBB201224FF46D
:1028000096619DF80000FEF7F0F900200400E4B2A4
:10281000002C3AD105F05CFE050035FA09F0C0073E
:1028200006D500214046C0B2FEF74EF90120070050
:1028300002F088FC834602F0F2FCFFB2002F02D0C7
:10284000012004000BE0DFF8AC0A5FFA88F80A21E7
:1028500001FB08004088002801D10220040002F09A
:10286000F2FC584602F072FC5FFA8AFABAF1000FE5
:1028700002D0BAF1010A01E0042004000DF10202C5
:102880000021052002F066FDC1E700214046C0B2EC
:10289000FEF71AF9E4B2022C01DB002000E001206F
:1028A000BDE8F28F2DE9F04387B00400002503F066
:1028B000AFFC80465FF0000901210020FEF7A4FE76
:1028C0005FFA88F8B8F1010F09D105F001FE0700A1
:1028D000380002F017F8002801D002203AE000206A
:1028E0000600002C01D10120060002F02BFC8146DD
:1028F00002F095FC0020DFF8B01D088002F0A3FC78
:10290000484602F023FC6D1CEDB2042D03DAFFF7FC
:10291000E2FE0028F7D006F0B9F8EDB2042D0BDA8C
:10292000F6B20196002000900023A27861785F2023
:1029300006F0F5F901200DE051208DF80800F6B2FF
:1029400001960120009002ABA27861785E2006F02B
:10295000E6F9002007B0BDE8F08300003C0000105D
:102960002DE9F04F85B000208DF80D0000250026E0
:10297000C8480778C84890F80080C8485FFA88F8C7
:1029800018F800008DF80500DFF8200DFFB230F8D0
:102990001700ADF81200DFF8180DBDF81210B0FBEB
:1029A000F1F0ADF81000DFF85C05807E8DF80400D2
:1029B000DFF85005C07E8DF80600DFF84805407846
:1029C0008DF80C00DFF83C0580798DF807005FF08A
:1029D00000099DF805004FF4C87148434FF47A711F
:1029E000B0FBF1F0801C82464346DBB200224FF47C
:1029F000C8719DF80500FEF7F8F800200400E4B265
:102A0000002C7CD105F064FD029002989DF8061020
:102A1000C840C00702D501208DF80D0002989DF82E
:102A20000410C840C00701D401200500029801F03D
:102A30006FFE02281DDB00214046C0B2FEF744F8BD
:102A4000962001F0E5FC002859D14346DBB2002274
:102A500040F226219DF80500FEF7C7F89DF8050015
:102A600040F2262148434FF47A71B0FBF1F0801C0C
:102A7000824602989DF80410C84010F00100C0B2D0
:102A800000280FD102989DF80610C84010F00100F0
:102A9000C0B2002806D100214046C0B2FEF714F8AB
:102AA0000320040002F04EFB814602F0B8FBDFF881
:102AB00044085FFA88F80A2101FB080040880028D2
:102AC00007D1EDB2002D02D00120040001E0022068
:102AD000040002F0B8FB484602F038FB5FFA8AFABD
:102AE000BAF1000F02D0BAF1010A01E0042004009B
:102AF0000DF10E0200210A2002F02CFC7FE70021DC
:102B00004046C0B2FDF7E0FF02989DF80410C840AF
:102B1000C00701D50020BAE00A208346BDF81000A6
:102B20008246FFB20097BDF810300022BDF81210A7
:102B30004FF4FA60FEF7C6F800200400E4B2002C5F
:102B400036D15FFA8BFBBBF1000F02D0BBF1010B5A
:102B500027E005F0BDFC029002989DF80C10C840DB
:102B6000C0070CD50DF10E020021142002F0F2FB7B
:102B700000213800C0B2FDF77DFE0120040002985C
:102B80009DF80710C840C00701D5012006005FFA74
:102B90008AFABAF1000F02D0BAF1010A01E002206C
:102BA00004000DF10E0200210A2002F0D3FBC5E75C
:102BB00000213800C0B2FDF75DFE0DF10E020021CC
:102BC0000A2002F0C7FB0020040005F0F9FB029088
:102BD00002A802989DF80410C84010F00100C0B28D
:102BE00000284ED102989DF80610C84010F0010050
:102BF000C0B2002845D102A801200400DFF8F80582
:102C0000807BC0F30010C0B200283AD1DFF8E8059D
:102C1000807B50F01000DFF8E0158873F6B2002ECC
:102C20000FD0DFF8D4050078602805DA002143F2E0
:102C3000467007F040FA09E00021802007F043F9D0
:102C400004E0002140F60E3007F035FADFF8A80561
:102C50004068DFF8A4154861DFF89C050078DFF8CC
:102C600098150876DFF890050078401CDFF8881585
:102C700048760820DFF8801588760021002007F0CC
:102C800084F901210120FEF7BFFC2000C0B205B08D
:102C9000BDE8F08FD06F0010CC700010CE70001027
:102CA0002DE9F04F89B004005FF0000B9548C6781D
:102CB0009448877E934890F81B80DFF8500B90F87B
:102CC0000090DFF84C0B90F800A000200500002CCD
:102CD00001D10120050001210120FEF795FC00280B
:102CE0000ED160208DF81000EDB20195012000900A
:102CF00004ABA27861785E2006F011F80020FEE0B7
:102D000005F0E6FB02900298F040C0070ED4442084
:102D10008DF81000EDB201950120009004ABA2786F
:102D200061785E2005F0FBFF0020E8E0DFF8C804D2
:102D3000807BC0F38000C0B200280ED164208DF8E3
:102D40001000EDB201950120009004ABA2786178EB
:102D50005E2005F0E4FF0020D1E0DFF89C04007C59
:102D600000280ED03B208DF81000EDB20195012017
:102D7000009004ABA27861785E2005F0D0FF0020BF
:102D8000BDE0DFF874040078DFF86C1449788842FD
:102D90000ED336208DF81000EDB201950120009081
:102DA00004ABA27861785E2005F0B9FF0020A6E0B0
:102DB000029801F0ADFC00280ED142208DF81000E1
:102DC000EDB201950120009004ABA27861785E20FD
:102DD00005F0A5FF002092E000208346DFF81804EC
:102DE000807B10F0EF00DFF8101488731BF1010BEB
:102DF0005FFA8BFBBBF1040F3ADAFFF7B1FD002855
:102E000022D005F065FB029002A80298F84010F06D
:102E10000100C0B2002807D1029830FA08F010F083
:102E20000100C0B200280ED002A8012007F0CCFD9E
:102E300003AA00214FF47A7002F08CFA05F048FBE7
:102E4000029002A8F1E713E0002143F2467007F078
:102E500032F95346DBB2012214214846C0B2FDF7D5
:102E6000C4FE03AA00214FF4FA6002F073FABDE732
:102E70005FFA8BFBBBF1040F2DDAEDB20195002058
:102E800000900023A27861785F2005F048FFDA48BF
:102E9000807B10F0DF00D8498873D748807BC0B2B0
:102EA000C009C0B2002814D0D348C07A042802DB7D
:102EB0000020D149C8720023DFF8780BCE49C97AC7
:102EC0000A5CDFF8700BCC49C97A095C022006F075
:102ED00038FD012013E052208DF81000EDB201956D
:102EE0000120009004ABA27861785E2005F017FF06
:102EF000132319223221042006F023FD002009B0FB
:102F0000BDE8F08F286F0010B06500102DE9F04F7C
:102F100083B000260027DFF8F80890F80080DFF87B
:102F2000EC085FFA88F818F800008DF80000DFF868
:102F3000500D007E8DF80300DFF8440D807E8DF883
:102F4000010000208DF802005FF001095FF0000B26
:102F500005F0BEFA05009DF8010035FA00F0C00743
:102F60005FD59DF800004FF4966148434FF4FA7125
:102F7000B0FBF1F0801C82464346DBB24A46D2B237
:102F80004FF496619DF80000FDF72FFE002004002D
:102F9000E4B2002C40D105F09BFA05009DF8010039
:102FA00035FA00F0C0070BD401AA0021142002F06A
:102FB000D1F900214046C0B2FDF786FD0120060090
:102FC00002F0C0F8834602F02AF9F6B2002E02D0D1
:102FD000012004000BE0DFF8DC065FFA88F80A2124
:102FE00001FB08004088002801D10220040002F003
:102FF0002AF9584602F0AAF85FFA8AFABAF1000FE5
:1030000002D0BAF1010A01E00420040001AA002163
:10301000052002F09FF9BBE700214046C0B2FDF752
:1030200053FDE4B2022C01DB002060E09DF80000BB
:103030004FF4966148434FF4FA71B0FBF1F0801CF5
:1030400082464346DBB29DF802204FF496619DF81C
:103050000000FDF7CAFD00200400E4B2002C3BD1C3
:1030600005F036FA05009DF8030035FA00F0C007B8
:1030700006D400214046C0B2FDF726FD012007001E
:1030800002F060F8834602F0CAF8FFB2002F02D0C7
:10309000012004000BE0DFF81C065FFA88F80A2123
:1030A00001FB08004088002801D10220040002F042
:1030B000CAF8584602F04AF85FFA8AFABAF1000FE5
:1030C00002D0BAF1010A01E00420040001AA0021A3
:1030D000052002F03FF9C0E700214046C0B2FDF7ED
:1030E000F3FCE4B2022C01DB002000E00120BDE88B
:1030F000FE8F2DE9F04188B00400002503F088F828
:1031000007005FF000080121022001F0AFFF02AAD2
:103110000021322002F01EF90121022001F090FF6F
:1031200002F010F8804602F07AF8DFF8580B407889
:1031300050F08000DFF84C1B4870DFF8480B4078F7
:1031400050F04000DFF83C1B4870DFF8380B008877
:1031500010F4404050F01900DFF8281B088002F0FE
:1031600072F8404601F0F2FF00200600002C01D169
:103170000120060001F0E6FF804602F050F8002032
:10318000DFF82415088002F05EF8404601F0DEFF0B
:103190006D1CEDB2042D03DAFFF7B8FE0028F7D05E
:1031A00005F074FCEDB2042D0FDAF6B201960020A2
:1031B00000900023A27861785F2005F0B0FD002028
:1031C000DFF89C1D0870012013E051208DF80C00E1
:1031D000F6B201960120009003ABA27861785E20E0
:1031E00005F09DFD132319223221042006F0A9FBCE
:1031F000002008B0BDE8F081F06C00102DE9F04F20
:1032000083B000250026DFF808060778DFF8FC0504
:10321000FFB2385C8DF80100DFF8640A807E8DF81B
:1032200000005FF000085FF001095FF0000B9DF8FF
:1032300001004FF4C87148434FF4FA71B0FBF1F04C
:10324000801C82463B00DBB24246D2B24FF4C871CA
:103250009DF80100FDF7C9FC00200400E4B2002C39
:1032600036D105F035F9019001989DF80010C8405D
:10327000C00701D40120060001F064FF834601F07D
:10328000CEFFDFF83004FFB20A2101FB07004088BF
:10329000002807D1F6B2002E02D00120040001E080
:1032A0000220040001F0CFFF584601F04FFF5FFA03
:1032B0008AFABAF1000F02D0BAF1010A01E0042043
:1032C00004000DF102020021052002F043F8C5E7D9
:1032D00000213800C0B2FDF7F7FB01989DF80010FF
:1032E000C840C00701D5002001E02000C0B2BDE801
:1032F000FE8F0000946F00102DE9F04F87B004009E
:103300005FF0000BDFF87809C778DFF87409807E7A
:103310008DF80900DFF86809C07E8DF80800DFF835
:10332000EC0490F80080DFF8E80490F800905FF07B
:10333000000A0121022001F099FE01F003FF8246FC
:1033400001F06DFFDFF83C09407810F07F00DFF8F6
:103350003419487001F077FF504601F0F7FE002065
:103360000500002C01D10120050005F0B1F8060090
:1033700036FA07F0C0070ED444208DF80C00EDB2E9
:1033800001950120009003ABA27861785E2005F0E2
:10339000C6FC00206FE0300001F0BAF900280ED121
:1033A00042208DF80C00EDB201950120009003AB96
:1033B000A27861785E2005F0B2FC00205BE000207E
:1033C00083461BF1010B5FFA8BFBBBF1040F08DA9C
:1033D000FFF714FF012804D00120DFF8F81C087063
:1033E000EFE75FFA8BFBBBF1040F30DAEDB201952A
:1033F000002000900023A27861785F2005F08FFC08
:10340000DFF8D40C807BC0B2C009C0B2002818D04D
:10341000DFF8C40CC07A042803DB0020DFF8B81CF6
:10342000C8720023DFF80C06DFF8AC1CC97A0A5C0E
:10343000DFF80006DFF8A01CC97A095C022006F05C
:1034400080FA0120DFF8F81D0870012013E05220F7
:103450008DF80C00EDB201950120009003ABA2782D
:1034600061785E2005F05BFC1323192232210420D1
:1034700006F067FA002007B0BDE8F08F2DE9FE4F97
:103480000025E3480678DFF8F807007E8DF8030092
:10349000DFF8EC07407E8DF80000DFF8E407807E5F
:1034A0008DF80200DFF8D807C07E8DF80100D748FC
:1034B000F6B2375C5FF000095FF0010A5FF0000BC5
:1034C000FFB24FF4487000FB07F04FF4FA71B0FB05
:1034D000F1F0801C80463300DBB25246D2B24FF48A
:1034E00048713800C0B2FDF780FB00200400E4B250
:1034F000002C39D104F0ECFF019001989DF80010E8
:10350000C840C00706D400213000C0B2FDF7DCFA85
:103510000120050001F016FE834601F080FEEDB2A9
:10352000002D02D00120040009E06248F6B20A2111
:1035300001FB06004088002801D10220040001F0B0
:1035400082FE584601F002FE5FFA88F8B8F1000FDB
:1035500002D0B8F1010801E00420040002AA002111
:10356000052001F0F7FEC2E700213000C0B2FDF7F0
:10357000ABFAE4B2022C01DB002000E00120BDE840
:10358000FE8F2DE9F04F87B004005FF0000BDFF8ED
:10359000F006007E8DF80800DFF8E406477EDFF8CD
:1035A000E00690F81A80DFF8D80690F81B905FF0DC
:1035B000000A0121022001F059FD01F0C3FD8246FD
:1035C00001F02DFEDFF8BC06407810F07F00DFF838
:1035D000B416487001F037FE504601F0B7FD0020E8
:1035E0000500002C01D10120050004F071FF060048
:1035F00036FA08F010F00100C0B2002815D136FAF2
:1036000007F010F00100C0B200280ED142208DF862
:103610000C00EDB201950120009003ABA278617817
:103620005E2005F07CFB00203BE01BF1010B5FFA04
:103630008BFBBBF1040F03DAFFF720FF0028F4D067
:103640005FFA8BFBBBF1040F17DAEDB20195002096
:1036500000900023A27861785F2005F060FB0220D3
:10366000DFF8FC180870DFF8A40D007850F0200097
:10367000DFF8981D0870012013E054208DF80C002D
:10368000EDB201950120009003ABA27861785E2035
:1036900005F045FB132319223221042006F051F9CD
:1036A000002007B0BDE8F08F1C700010D86F00102C
:1036B00000710200946F0010010001207047F0B506
:1036C00087B004000D00002700200600002C01D167
:1036D000012006007F1CFFB2042F05DA2800C0B2CB
:1036E000FFF7EAFF0028F5D0FFB2042F0BDAF6B29D
:1036F0000196002000900023A27861785F2005F0F9
:103700000EFB012013E066208DF80800F6B201964A
:103710000120009002ABA27861785E2005F0FFFAEC
:10372000132319223221042006F00BF9002007B0E0
:10373000F0BD2DE9F14F84B0DFF8700D0578DFF8AA
:10374000700DEDB230F81500ADF80600DFF8640D2D
:10375000BDF80610B0FBF1F6DFF82405007A8DF80D
:1037600004005FF000085FF001095FF0000A04F058
:10377000AFFE03902820834630000700EDB200958D
:1037800033009BB20122BDF806104FF4FA60FDF73A
:1037900099FA00200400E4B2002C24D15FFA8BFBDC
:1037A000BBF1000F02D0BBF1010B16E004F090FE5C
:1037B000039003989DF80410C840C00706D5002167
:1037C0002800C0B2FDF756F801200400FFB2002F18
:1037D00001D07F1E01E00220040002AA0021052082
:1037E00001F0B8FDD7E700212800C0B2FDF742F88C
:1037F00002AA00210A2001F0ADFDE4B2022C01DB97
:10380000002000E0012005B0BDE8F08FCE70001070
:10381000CC700010F0B587B004000D000027002028
:103820000600002C01D1012006007F1CFFB2042FEE
:1038300005DA2800C0B2FFF77CFF0028F5D0FFB200
:10384000042F0BDAF6B20196002000900023A27834
:1038500061785F2005F063FA012013E067208DF89E
:103860000800F6B201960120009002ABA2786178C0
:103870005E2005F054FA132319223221042006F0A9
:1038800060F8002007B0F0BD2DE9F04F83B00026AE
:1038900000275FF000084FF496695FF0000A5FF0C0
:1038A000010BDFF8DC03007E8DF80100DFF8D003A8
:1038B000407E8DF80300DFF8C803807E8DF800009D
:1038C000DFF8BC03C07E8DF8020000200190534653
:1038D000DBB20022494689B2DFF8300C5FFA8AFA7F
:1038E0001AF80000FDF781F95B46DBB20022494679
:1038F00089B2DFF8180C5FFA8BFB1BF80000FDF7AC
:1039000074F900200400E4B2002C69D104F0E0FD59
:1039100005009DF8020035FA00F0C00704D500212B
:103920005046C0B2FDF7D0F89DF8000035FA00F01F
:10393000C00706D500215046C0B2FDF7C5F80120EA
:1039400006009DF8000035FA00F0C00709D4F6B271
:10395000002E06D000215846C0B2FDF7B5F8012070
:103960000700C748407E35FA00F0C00704D50021A3
:103970005046C0B2FDF7A8F89DF8010035FA00F0F6
:10398000C0070BD500215846C0B2FDF79DF80021B5
:103990005046C0B2FDF798F801208046FFB2002FD4
:1039A00004D15FFA88F8B8F1000F02D001200400BA
:1039B000A9E7DFF8AC0D5FFA8AFA0A2101FB0A00D9
:1039C0004088002809D0DFF8980D5FFA8BFB0A21A8
:1039D00001FB0B004088002895D10220040092E7EB
:1039E00000215046C0B2FDF76FF800215846C0B222
:1039F000FDF76AF8E4B2022C18DB04F069FD05005B
:103A00009DF8010035FA00F010F00100C0B2002866
:103A10000AD09DF8000035FA00F010F00100C0B2A5
:103A2000002801D0012002E0002000E00120BDE8D4
:103A3000FE8F00003C0000102DE9F04F85B004001F
:103A400000275FF000085FF000091420ADF80C00BB
:103A50008B48E4B210EBC40040788DF8060088482B
:103A6000E4B210EBC40090F802A0DFF8440AE4B21C
:103A700030F81400ADF80A00DFF8900A40788DF8AD
:103A80000400DFF8E00C40788DF805000020049079
:103A9000E4B2042C01DB0020EFE01420834604F0A4
:103AA00017FD060036FA0AF0C00701D5012007000D
:103AB0009DF804004FF47A7148434FF47A71B0FBDB
:103AC000F1F0801C8DF8070096208346E4B2009444
:103AD00096230022BDF80A104FF4FA60FDF7F2F8C1
:103AE0009DF8053000224FF47A719DF80400FDF72F
:103AF0007CF800200500EDB2002D40F08D805FFACB
:103B00008BFBBBF1000F02D0BBF1010B7EE004F098
:103B1000DFFC06009DF8060036FA00F0C0070BD562
:103B200002AA0021142001F015FC00212000C0B2DF
:103B3000FCF7A0FE0120814636FA0AF0C00701D545
:103B40000120070036FA0AF0C0074CD4FFB2002F5C
:103B500049D001208046DFF88005E4B210EB441024
:103B6000807BC0F30010C0B200283CD1DFF86805AC
:103B7000E4B210EB4410807B50F01000DFF85815D1
:103B8000E4B211EB44118873DFF84C05E4B210EB9A
:103B900044104068DFF84015E4B211EB441148616D
:103BA000DFF83405E4B26101085CDFF82C15E4B2FB
:103BB00011EB44110876DFF82005E4B26101085CDE
:103BC000401EDFF81415E4B211EB441148760820CA
:103BD000DFF80415E4B211EB441188762100C9B274
:103BE000002006F0D2F95FFA89F9B9F1000F02D08E
:103BF000012005000AE0DFF8080DE4B20A2101FB0C
:103C000004000089002801D10220050002AA002139
:103C1000052001F09FFB6EE700212000C0B2FCF7F9
:103C200029FE00210020FCF74FFF02AA00210A20F4
:103C300001F090FBDFF8A004E4B210EB4410807BAD
:103C4000C0F30010C0B2002804D002AA00210A204C
:103C500001F080FBEDB2022D01DB00200DE0200021
:103C6000C0B200F037FB002801D1022005E021009E
:103C7000C9B2802006F027F9012005B0BDE8F08F19
:103C8000286F0010087000102DE9F04F8BB0040071
:103C90000D005FF0000BDFF8CC0CEDB210EBC500AF
:103CA00090F803A0EDB2032D01DB002055E10020C8
:103CB0000600002C01D101200600002083460020D0
:103CC00080461BF1010B5FFA8BFBBBF1040F1BDA83
:103CD00000F01EFC80465FFA88F8B8F1000F13D0A0
:103CE0005FFA88F8B8F1010FEBD141208DF8080098
:103CF000F6B201960120009002ABA27861785E20B6
:103D000005F00DF8002028E15FFA8BFBBBF1040FF2
:103D100014DB65208DF80800F6B2019601200090B2
:103D200002ABA27861785E2004F0F9FF1323192218
:103D30003221042005F005FE00200EE1DFF8500DD1
:103D40000078C0F3C000C0B200281AD0DFF8400DE0
:103D5000007810F0F700DFF8381D0870FFF794FDC9
:103D600000280ED041208DF80800F6B201960120FF
:103D7000009002ABA27861785E2004F0D0FF0020B2
:103D8000EBE004F0A5FB070037FA0AF0C0070ED4F9
:103D900044208DF80800F6B201960120009002AB95
:103DA000A27861785E2004F0BAFF0020D5E0CA480E
:103DB000EDB210EB4510807BC0F38000C0B200284C
:103DC0000ED164208DF80800F6B201960120009013
:103DD00002ABA27861785E2004F0A1FF0020BCE075
:103DE000BD48EDB210EB4510007C00280ED03B2002
:103DF0008DF80800F6B201960120009002ABA2787F
:103E000061785E2004F08BFF0020A6E0B248EDB29E
:103E10006901085C00280ED163208DF80800F6B215
:103E200001960120009002ABA27861785E2004F038
:103E300076FF002091E0A848EDB210EB4510807BA2
:103E400010F0EF00A449EDB211EB4511887300208A
:103E5000814600208046002083461BF1010B5FFA5B
:103E60008BFBBBF1040F51DA04F032FB070037FA89
:103E70000AF0C0070ED444208DF80800F6B201966F
:103E80000120009002ABA27861785E2004F047FF29
:103E9000002062E05FFA89F9B9F1000F09D128002A
:103EA000C0B200F017FA002803D00020834601209A
:103EB00081465FFA89F9B9F1000FCED05FFA88F830
:103EC000B8F1000F04D12800C0B2FFF7B5FD80465D
:103ED0005FFA88F8B8F1000F15D0FFF7D5FC00287D
:103EE00008D0DFF8AC0B007810F0F700DFF8A01B6B
:103EF00008700BE0DFF8980B007850F00800DFF84E
:103F0000901B0870A9E700208146A6E704F0BEFDDB
:103F10005FFA8BFBBBF1040F14DB53208DF8080014
:103F2000F6B201960120009002ABA27861785E2083
:103F300004F0F5FE132319223221042005F001FDBF
:103F400000200AE0F6B20196002000900023A2783B
:103F500061785F2004F0E3FE01200BB0BDE8F08F34
:103F6000E97000102DE9F84F002600274FF49678ED
:103F70005FF00009DFF8940540788DF80100DFF864
:103F8000D00C007E8DF80000DFF8C40C90F819A06A
:103F9000DFF8D00790F801B001220DF102012020D6
:103FA00006F09DFE002808D09DF80200002804D1EC
:103FB0004FF416708046012081465B46DBB200223A
:103FC000414689B29DF80100FCF70FFE0020040075
:103FD000E4B2002C38D104F07BFA050035FA0AF07F
:103FE000C00701D50120060035FA0AF0C0070ED43B
:103FF000F6B2002E0BD05FFA89F9B9F1000F04D1A7
:1040000000215846C0B2FCF75FFD01200700FFB257
:10401000002F06D05FFA89F9B9F1000F01D1012014
:104020000400DFF83C075FFA8BFB0A2101FB0B0061
:1040300040880028CCD1FFB2002F02D0012004001C
:10404000C6E702200400C3E700215846C0B2FCF7CF
:104050003BFD04F03DFA0500E4B2022C25DB9DF89F
:10406000000035FA00F010F00100C0B200281AD0AC
:1040700035FA0AF010F00100C0B2002813D15FFA3F
:1040800089F9B9F1000F0CD0280000F025FC0028B8
:1040900007D1DFF8C00B007850F00200DFF8B41B46
:1040A0000870012014E0002012E05FFA89F9B9F1EC
:1040B000000F0CD0280000F00FFC002807D1DFF81B
:1040C000940B007850F00200DFF8881B0870012084
:1040D000BDE8F28FF1700010F06C00102DE9F04196
:1040E00086B0040000255FF0000800200600002CC8
:1040F00001D10120060004F0EBF90700380000F0C0
:10410000EBFB00280ED142208DF80800F6B2019694
:104110000120009002ABA27861785E2004F0FFFDE0
:10412000002038E06D1CEDB2042D03DAFFF71AFF12
:104130000028F7D0EDB2042D1FDA01F003F8804615
:1041400001F06DF8DFF8100B007810F09F0050F0D0
:104150002000DFF8041B087001F075F8404600F0FD
:10416000F5FFF6B20196002000900023A278617856
:104170005F2004F0D4FD01200DE054208DF80800EC
:10418000F6B201960120009002ABA27861785E2021
:1041900004F0C5FD002006B0BDE8F0812DE9F84F20
:1041A000002600274FF4C878D84890F80190DFF82F
:1041B000B40790F81BA0DFF8AC0590F801B05B469F
:1041C000DBB20122414689B24846C0B2FCF70DFD80
:1041D00000200400E4B2002C24D104F079F9050099
:1041E00035FA0AF0C00701D50120060035FA0AF0B9
:1041F000C00704D4F6B2002E01D001200700DFF87A
:104200005C0A5FFA8BFB0A2101FB0B004088002847
:10421000E0D1FFB2002F02D001200400DAE7022033
:104220000400D7E700215846C0B2FCF74DFCE4B2C9
:10423000022C01DB002000E00120BDE8F28F00002D
:10424000E9700010F0B587B00400002500200600DA
:10425000002C01D10120060004F03AF907003800D3
:1042600000F03AFB00280ED143208DF80800F6B28A
:1042700001960120009002ABA27861785E2004F0E4
:104280004EFD002024E06D1CEDB2042D03DAFFF793
:1042900085FF0028F7D0EDB2042D0BDAF6B20196B7
:1042A000002000900023A27861785F2004F037FDA1
:1042B00001200DE05A208DF80800F6B20196012089
:1042C000009002ABA27861785E2004F028FD002007
:1042D00007B0F0BD2DE9F04782B004000027DFF8F9
:1042E0008406E4B210EBC40090F803907048E4B286
:1042F00030F8140006005FF0000A2000C0B2FDF79D
:104300000FF900280AD0DFF8880700780121A140C2
:104310008843DFF87C170870012075E07F1CFFB22E
:10432000052F67DAE4B2009496230122310089B2A6
:104330004FF4FA60FCF7C6FC2100C9B28C20FDF7EF
:1043400031F9050000212000C0B2FCF793FAEDB26C
:10435000002D44D1E4B2009496230022310089B2AA
:104360004FF4FA60FCF7AEFC2100C9B26420FDF7FF
:1043700032F900212000C0B2FCF77CFA2100C9B25A
:1043800040F6B83005F097FE00F0DCFE824600F003
:1043900046FFC820DFF8C818087000F054FF5046E8
:1043A00000F0D4FE00F0CEFE824600F038FFDFF8C9
:1043B000B0080078002805D100F045FF504600F015
:1043C000C5FEABE700F03FFF504600F0BFFE04F033
:1043D0007FF8804638FA09F0C007E3D49EE7DFF89B
:1043E000B00600780121A1408843DFF8A4160870C8
:1043F000012009E0DFF8980600780121A140084378
:10440000DFF88C1608700020BDE8F68714700010E5
:104410002DE9F04104003D480678D24807785FF066
:10442000000800F08FFE804600F0F9FE1420DFF84F
:104430003018087000F007FF404600F087FE3B0090
:10444000DBB20122210089B23000C0B2FCF7CDFB03
:1044500004F03EF80500E80106D400213800C0B29F
:10446000FCF732FB01201FE000F06CFE804600F0FC
:10447000D6FEDFF8EC07007800280CD100F0E3FE50
:10448000404600F063FE00213800C0B2FCF71CFB80
:10449000680108D405E000F0D6FE404600F056FE64
:1044A000D6E7012000E00020BDE8F081D06F0010C9
:1044B000D86F0010007102000100DFF89407007E41
:1044C00031FA00F010F00100DFF884375B7E31FA3A
:1044D00003F313F0060318430200D2B210000028C1
:1044E00009D0801E022808D9C01E0AD0401E04D060
:1044F000401E04D007E0002006E0012004E0022076
:1045000002E0032000E0042070470000CE7000109D
:104510002DE9F04F83B0002600275FF000085FF020
:1045200000094FF4C870ADF80400DFF83807407890
:104530008DF802008B4890F801A0DFF81407007E88
:104540008DF80000DFF8080790F81AB0DFF80007D0
:10455000C07E8DF8030003F0BBFF0500DFF8F00616
:10456000007E35FA00F010F00700DFF8E416C97E8F
:1045700035FA01F111F0010150EAC1008DF8010096
:104580009DF80100002801D10020BFE09DF8000047
:1045900035FA00F010F00100C0B2002808D035FA5A
:1045A0000BF010F00100C0B2002801D00120ADE0F6
:1045B0009DF80100002846D09DF80100042842DA49
:1045C0005346DBB20122BDF804109DF80200FCF74F
:1045D0000CFB00200400E4B2002C29D103F078FF8A
:1045E000050035FA0BF0C0070DD50DF106020021CC
:1045F0000A2000F0AFFE00215046C0B2FCF764FA7A
:104600000120040014E09DF8030035FA00F0C00713
:1046100006D500210120FCF757FA0320040007E02B
:10462000DFF8380680890028D5D102200400D2E7BF
:1046300000215046C0B2FCF747FAE4B2032C02DA7C
:104640002000C0B262E00020070000200600002029
:1046500080469DF8000035FA00F0C00701D4012023
:1046600081465346DBB20022BDF804109DF80200DB
:10467000FCF7BBFA00200400E4B2002C3FD103F0A9
:1046800027FF050035FA0BF0C00701D50120060011
:1046900035FA0BF0C00709D4F6B2002E06D000217F
:1046A0005046C0B2FCF710FA012007009DF8000048
:1046B00035FA00F0C0070AD55FFA89F9B9F1000FA1
:1046C00005D000210120FCF7FFF901208046FFB250
:1046D000002F04D15FFA88F8B8F1000F02D0012052
:1046E0000400C9E7DFF874055FFA8AFA0A2101FBC2
:1046F0000A0040880028BFD102200400BCE7002146
:104700005046C0B2FCF7E0F92000C0B2BDE8FE8F11
:104710000100DFF83C05007E31FA00F0DFF83035AB
:104720009B7E31FA03F313F0030340085B411A0048
:10473000D2B21000002809D0801E022808D9C01E5D
:104740000AD0401E04D0401E04D007E0002006E03E
:10475000012004E0022002E0032000E00420704772
:10476000946F0010CC7000102DE9F04F83B000263C
:1047700000275FF000084FF4C87B5FF00009DFF806
:10478000E4045FFA89F919F800008DF80200DFF8F7
:10479000C004007E8DF80100DFF8B40490F81AA080
:1047A00003F096FE0500DFF8A804007E35FA00F05D
:1047B000DFF89C14897E35FA01F111F003014008FD
:1047C00049418DF800109DF80000002801D100201B
:1047D00080E09DF80000012801D103207AE09DF8D7
:1047E0000000072801D1042074E09DF8010035FA8B
:1047F00000F010F00100C0B2002808D035FA0AF02D
:1048000010F00100C0B2002801D0012062E0DFF802
:104810004004007E35FA00F0C00701D50120804633
:104820004B46DBB20122594689B29DF80200FCF7E3
:10483000DCF900200400E4B2002C44D101AA0021DC
:104840001E2000F087FD03F043FE050035FA0AF054
:10485000C00701D5012006009DF8010035FA00F0DF
:10486000C0070BD55FFA88F8B8F1000F06D1002118
:104870004846C0B2FCF728F90120804635FA0AF014
:10488000C00708D4F6B2002E05D000210020FCF7A6
:104890001BF9012007005FFA88F8B8F1000F02D178
:1048A000FFB2002F02D001200400C4E7DFF8AC0300
:1048B0005FFA89F90A2101FB090040880028BAD172
:1048C00002200400B7E700214846C0B2FCF7FCF81C
:1048D0002000C0B2BDE8FE8F0100DFF87423127E15
:1048E00031FA02F212F00702DFF864331B7F31FA6B
:1048F00003F313F008031A431000C0B2704700001E
:10490000006F001030B40100DFF84403027EDFF8CE
:104910004003437EDFF83803847EDFF83403C57E2E
:1049200031FA04F010F00100C0B2002814D131FABD
:1049300005F010F00100C0B200280DD131FA05F0E9
:1049400010F00100C0B2002806D131FA05F010F0D5
:104950000100C0B2002801D0012000E0002030BCDE
:1049600070470000286F001038B500200400E4B242
:10497000032C4CDABC48E4B210EB4410807BC0F34B
:104980008000C0B2002842D0B748E4B210EB441017
:10499000807BC0F3C000C0B2002838D1B248E4B276
:1049A00010EB4410007C002831D1AF48E4B210EB8A
:1049B0004410807BC0F34010C0B2002827D0A54827
:1049C0000078C0F34000C0B200281ED0A148007893
:1049D00010F0FD009F4908702100C9B20020FFF7C8
:1049E00053F9002811D00020FFF778FB00280CD0E5
:1049F0009748E4B210EBC400007E05009B480068B5
:104A00000121A940884399490860641CAFE731BD82
:104A100080B59548807BC0F38000C0B2002835D0B7
:104A20009148807BC0F3C000C0B200282ED18E48D0
:104A3000007C00282AD18C48807BC0F34010C0B293
:104A4000002823D040208A49087082480078C0F3AB
:104A50004000C0B2002819D07E48007810F0FD0058
:104A60007C4908700020FDF709FC00280ED00020CA
:104A7000FDF7E3FD002809D07C4800680121744A55
:104A800092F91820914088437849086001BD0000E0
:104A90002070001010B57448807BC0F38000C0B255
:104AA000002838D07048807BC0F3C000C0B2002816
:104AB00031D16D48007C00282DD16B48807BC0F33C
:104AC0004010C0B2002826D04120694908706148D2
:104AD000007810F0010000281DD05E48007810F02A
:104AE000FE005C4908700020FDF7DCFE0400C0B247
:104AF000002810D0E4B2022C0020FEF7D1F80028E4
:104B000009D05A4800680121514A92F91820914071
:104B100088435649086010BD10B5412054490870BB
:104B20004C48007810F0010000281DD0494800785A
:104B300010F0FE00474908700020FEF7DAFA040082
:104B4000C0B2002810D0E4B2022C0020FEF7D4FB43
:104B5000002809D04548006801213D4A92F91820F3
:104B6000914088434149086010BD70B539480078CC
:104B7000C0F3C000C0B2002817D03E48FCF734FF95
:104B800000280BD00020FDF71DFA00285FD1314826
:104B9000007810F0F7002F49087058E02D48007891
:104BA00010F0F7002B49087051E02F48807BC0F3CC
:104BB0008000C0B200284AD02B48807BC0F3C000E0
:104BC000C0B2002843D123480078C0F38000C0B2AF
:104BD00000283CD02848007800280AD10020FCF7A3
:104BE00003FF002805D11B48007810F0FB0019498D
:104BF00008700120204908701B48007C002826D13D
:104C000013488079050003F063FC06001648807B9A
:104C1000C0F34010C00706D436FA05F010F00100CA
:104C2000C0B2002813D10020FDF77CF80400E4B2E4
:104C3000002C03D100201049087008E0E4B2012CD8
:104C400005D10448007810F0FB000249087070BDDF
:104C5000286F00101470001010700010946F001076
:104C6000EE700010CE700010F06C00100C70001090
:104C7000EB700010C06E0010ED7000102DE9FC4FBD
:104C800083B004000D0000200190A4B2002C06D0D7
:104C9000022C04D012D3042C10D00FD315E09DF8B1
:104CA0003800012809D1BDF83C00002803D0BDF828
:104CB0003C00012801D10020BFE108E09DF8380048
:104CC000012801D10020B8E101E00020B5E1BDF8E4
:104CD000100030F0100080B2012806D0022808D061
:104CE00004280AD008280CD00FE002208DF800001C
:104CF0000DE000208DF8000009E003208DF8000091
:104D000005E001208DF8000001E0002095E1BDF8EC
:104D10004000002805D0022830D02BD3032831D002
:104D200034E000208DF8010000F00CFA019000F052
:104D300076FABDF80C0000280BD1A4B26001DFF8B0
:104D4000C8130858A843A4B26101DFF8BC2350502F
:104D50000AE0A4B26001DFF8B01308582843A4B2F7
:104D60006101DFF8A423505000F06DFA019800F0C3
:104D7000EDF90DE001208DF8010009E002208DF829
:104D8000010005E003208DF8010001E0002054E15E
:104D900000F0D8F9019000F042FABDF81000C0B25E
:104DA000000910F0010000280BD0A4B2DFF85C036A
:104DB00050F824002843A4B2DFF8501341F824002F
:104DC0000AE0A4B2DFF8440350F82400A843A4B2D8
:104DD000DFF8381341F8240000F035FA019800F0AC
:104DE000B5F9A4B2DFF8280350F834000700A4B2E4
:104DF000DFF8200350F834008146A4B2DFF818032E
:104E000050F834008046A4B2DFF8100350F83400A4
:104E10008246002083465FFA8BFBBBF1100F52D213
:104E20005FFA8BFB5FEA4B000600012010FA0BF0E3
:104E300000280AD0012010FA0BF02840012111FAB5
:104E40000BF1884201D1012000E0002000280FD0A2
:104E50000320B04087430320B04038EA00089DF8A3
:104E60000000B04007439DF80100B04050EA080838
:104E700001201BF11001884000280CD001201BF1FB
:104E800010018840284001211BF110029140884206
:104E900001D1012000E00020002811D00320B04003
:104EA00039EA00090320B0403AEA000A9DF8000000
:104EB000B04050EA09099DF80100B04050EA0A0AE2
:104EC0001BF1010BA7E700F03DF9019000F0A7F9F5
:104ED000A4B2DFF83C0240F83470A4B2DFF8340228
:104EE00040F83490A4B2DFF8300240F83480A4B225
:104EF000DFF8280240F834A000F0A5F9019800F08E
:104F000025F9A4B2002C03D0A4B2022C40F0948066
:104F100000F018F9019000F082F99DF8380001289E
:104F200073D1BDF83C00002806D0022822D012D34D
:104F300004284FD036D367E079480068C5F3832151
:104F400088437749086077480068C5F383210843A0
:104F5000744908606BE072480068C5F38321884398
:104F60006F4908606F480068C5F3832188436D4925
:104F700008605CE0A4B220016B4908582843A4B241
:104F80002101694A505066480068C5F383210843EF
:104F90006349086063480068C5F383210843614999
:104FA000086044E0A4B22001604908582843A4B234
:104FB00021015E4A50505A480068C5F383210843D6
:104FC0005749086057480068C5F38321884355490D
:104FD00008602CE0A4B22001534908582843A4B229
:104FE0002101514A5050A4B2200150490858284389
:104FF000A4B221014D4A505049480068C5F38321AD
:1050000008434749086012E011E0A4B22001464974
:105010000858A843A4B22101434A5050A4B2200129
:1050200042490858A843A4B22101404A505000F018
:105030000AF9019800F08AF8012005B0BDE8F08F68
:1050400070B504000D000026A4B2052C0DDA00F0A6
:1050500079F8060000F0E3F8A4B2600134490D507D
:1050600000F0F1F8300000F071F870BD70B5040088
:105070000D000026A4B2052C0DDA00F063F806003E
:1050800000F0CDF8A4B260012A490D5000F0DBF821
:10509000300000F05BF870BD2DE9F04104000D0018
:1050A0005FF00008A4B2052C1EDAA4B26001224908
:1050B000085828400700A4B260011F49085835EA83
:1050C0000000060000F03EF8804600F0A8F8A4B208
:1050D000600117490F50A4B2600116490E5000F04C
:1050E000B2F8404600F032F8BDE8F081010089B224
:1050F000052901DB002005E089B248010E4B185854
:10510000020010007047000000C0092054C0024097
:1051100040C0024044C0024000C0024004C00240FF
:1051200048C10F404CC10F40908002409480024023
:105130001CC0092018C0092014C0092072B670478D
:1051400062B67047EFF3108072B6704780F3108834
:10515000704730BF704720BF7047B0FA80F070478B
:1051600090FAA0F0B0FA80F0704790FAA0F0704783
:1051700080B500F08DF800F092F800F085F801BDE0
:10518000FEE710B50024FFF7DDFF040000F047F84C
:105190001021DFF89C0102F052FB00F054F82000CF
:1051A000FFF7D4FF10BD10B505F050FC040020003F
:1051B00010BDDFF880110860704738B5002500F099
:1051C0000CF80400FFF7BEFF050000205A490860F4
:1051D0002800FFF7BBFF200032BD70B50026FFF7A7
:1051E000B1FF06005448006804003000FFF7AEFF2E
:1051F000200000F090F80500280070BD70B5002672
:10520000FFF7A0FF06004D48006804003000FFF7DC
:105210009DFF200000F07FF80500280070BD80B5DC
:1052200047480088401C46490880464800880028B6
:1052300003D105F00BFC4449086042480088401C3B
:105240004049088001BD10B53E480088401E3D49D8
:1052500008803C480088002815D105F0F7FB3B4941
:1052600008603A48006838490968401A0400324822
:105270000068A04201D23048046030480068A04273
:1052800001D22E48046010BD80B5FFF77AFF01BD42
:1052900080B500202749086005F0C4FB01BD70B54A
:1052A000002600202649088000202649088000208A
:1052B0002549086000202549086000201E49086033
:1052C00000201E49086000202149086000200400D9
:1052D000FFF738FF060000200500ADB2002D0BD10E
:1052E000002015490860FFF79AFFFFF7ACFF12484E
:1052F000006804196D1CF0E70120B4FBF0F01449BC
:10530000086000200C49086000200C49086030004B
:10531000FFF71CFF70BD010008000D4A12688242B1
:1053200003D20B4A1268801A01E000221000704775
:10533000A86F0010F06F00100070001004700010D3
:10534000C8700010CA700010F46F0010F86F0010E1
:10535000FC6F0010F8B504000D0016000027DFF800
:10536000DC020078002803D047F27520308082E00C
:10537000DFF8CC020078002803D046F66350308076
:1053800079E0ADB22800002805D0022803D0042817
:1053900008D0082807D1002C03D147F27E203080A6
:1053A00069E004E003E045F62560308063E0FFF744
:1053B000C9FE0700FFF733FFDFF884020078401CC6
:1053C000DFF87C120870DFF878020078012801D13C
:1053D00006F0D1FAFFF737FF3800FFF7B7FE0120DC
:1053E000DFF86012096881F8360033002A0092B2B3
:1053F0002100DFF85002006806F00AFC308800281F
:1054000018D0FFF79FFE0700FFF709FFDFF8300213
:105410000078401EDFF828120870DFF824020078B8
:10542000002801D106F0B1FAFFF70DFF3800FFF7B1
:105430008DFE20E0DFF80C02006806F048FAFFF766
:1054400081FE0700FFF7EBFEDFF8F4010078401E55
:10545000DFF8EC110870DFF8E8010078002801D1CE
:1054600006F093FAFFF7EFFE3800FFF76FFE05F046
:10547000C7FD00203080F1BD2DE9F04F83B005005D
:105480000E00170098460C9CDDF834905FF0000B7E
:10549000DFF8A8010078002804D047F27520A9F8A9
:1054A0000000AEE0DFF898010078002804D046F64E
:1054B0006350A9F80000A4E014F00E00ADF8040059
:1054C000BDF80400002805D0022803D0042813D01A
:1054D000082812D1B8F1000F0DD1BFB2002F0AD1A8
:1054E000B6B2002E07D1ADB2002D04D147F27E2016
:1054F000A9F8000085E005E004E045F62560A9F87C
:1055000000007EE0504800688246ADB24FF4616012
:10551000B6B23C2101FB06F100FB0510BFB2381802
:105520004FF4FA71B1FBFAF111EB080101FB0AF13A
:105530004FF47A72B1FBF2F10AFB00100090009870
:1055400000285AD0FFF7FEFD8346FFF768FE3C486F
:105550000078401C3A49087039480078012801D188
:1055600006F009FAFFF76FFE5846FFF7EFFD01203E
:105570003449096881F836004B46BDF8042000998B
:105580003048006806F044FBB9F80000002815D048
:10559000FFF7D8FD8346FFF742FE29480078401EFA
:1055A0002749087026480078002801D106F0EDF957
:1055B000FFF749FE5846FFF7C9FD22E02148006881
:1055C00006F085F9FFF7BEFD8346FFF728FE1C486D
:1055D0000078401E1A49087019480078002801D147
:1055E00006F0D3F9FFF72FFE5846FFF7AFFD05F0A1
:1055F00007FD0020A9F8000003E047F27E20A9F88B
:105600000000BDE8F78F30B585B006F011FE05F05B
:105610001DFA040004A803900294002001900020C9
:105620000090002300220948094909780C2505FB50
:105630000101084806F056FE05B030BDF2700010BA
:10564000F7700010C0700010D43A0100C83D00107F
:10565000F47000105449434B10B504005FF0402033
:10566000006850F001005FF040210860FCF71CF872
:1056700010BD10B50400DFF8C00C006850F0010048
:10568000DFF8B41C0860FBF727F810BD10B5040064
:10569000DFF8A80C006850F00100DFF8A01C0860DB
:1056A000042005F091F910BD10B50400DFF8900C4E
:1056B000006850F00100DFF8881C0860FBF794FBDD
:1056C00010BD10B50400DFF87C0C0068C0070AD5D7
:1056D000DFF8700C006850F00100DFF8681C08600B
:1056E000FBF734F80EE0DFF85C0C0068800709D5A2
:1056F000DFF8500C006850F00200DFF8481C08602A
:10570000FBF724F810BD80B504F0FEF8FAF7F8FCBA
:1057100001BD10B5012007F0A1F80400DFF8880BE7
:10572000006850F00200DFF8801B08600220DFF8FC
:105730007C1B0860FF205FF0402108600020DFF83C
:10574000701B08600020DFF86C1B0860DFF8680B36
:10575000B4FBF0F0401EDFF8641B08601820DFF88F
:10576000E81B08600320DFF8E41B08600120DFF875
:105770003C1B08600023DFF8342C0121002007F0D7
:1057800087F90121002007F0F0F810BD10B50120C5
:1057900007F064F80400DFF8100B006850F0040014
:1057A000DFF8041B08600220DFF8A41B0860FF205C
:1057B000DFF8841B08600020DFF8981B08600020D9
:1057C000DFF8941B0860DFF8F00AB4FBF0F0401E2D
:1057D000DFF8DC1B08604520DFF8D81B08600320D9
:1057E000DFF8D41B08600023DFF8682C02210020BA
:1057F00007F04EF90221002007F0B7F810BD10B5F0
:10580000012007F02BF80400DFF89C0A006850F430
:105810008000DFF8941A08600220DFF83C1C086062
:10582000FF20DFF8181B08600020DFF8901B0860DD
:105830000020DFF88C1B0860DFF8200CB4FBF0F0D0
:10584000401EDFF81C1C086040F6B730DFF8141C5F
:1058500008600320DFF8101C08600020DFF8F81B48
:1058600008600023DFF8042C0321002007F010F962
:105870000321002007F079F810BD10B5012006F0D3
:10588000EDFF0400DFF8200A006850F40000DFF8A4
:10589000181A08600220DFF8D81B0860FF20DFF824
:1058A000A01A08600020DFF8CC1B08600020DFF899
:1058B000C81B08604FF47A70B4FBF0F0401EDFF8AC
:1058C000BC1B08600920DFF8B81B08600320DFF864
:1058D000B41B08600120DFF8981B08600023DFF884
:1058E000A82B0421002007F0D3F80421002007F0A2
:1058F0003CF810BD10B5012006F0B0FF04000220F6
:10590000DFF8881B0860FF20DFF8381A08600020E5
:10591000DFF87C1B08600020DFF8781B0860DFF8E8
:105920003C0BB4FBF0F0401EDFF86C1B086040F24B
:10593000CF70DFF8681B086040F2E730DFF8601BCB
:1059400008600B20DFF85C1B08600023DFF8582B91
:105950000921002007F09CF80921002007F005F834
:1059600010BDE0B5002002900020019000200090C2
:105970000123012201210220FFF780F901210220E9
:10598000FFF774FB07BD30B4030008244FF6FF7522
:1059900028001D7868405B1C08252C00C50703D52E
:1059A00080B24008504001E080B24008641EE4B27A
:1059B000002CF3D1491EC9B20029EAD180B230BC13
:1059C0007047F8B504000D00160000200700FFB274
:1059D000EDB2AF4210D22078C0B2000900F025F835
:1059E0003070761C207810F00F0000F01EF8641C58
:1059F0003070761C7F1CEAE7F1BD0100C9B2302986
:105A000006DBC9B23A2903DAB1F1300040B20BE04B
:105A1000C9B2412906DBC9B2472903DAB1F137001F
:105A200040B201E05FF0FF3070470100C9B20A29BF
:105A300003DA11F1300040B20BE0C9B20A2906DBEB
:105A4000C9B2102903DA11F1370040B201E05FF06A
:105A5000FF3070472DE9F04184B004000D001600BE
:105A600000200700FFB20A2F0EDA0A20B6FBF0F181
:105A700000FB1160804600A8FFB207F800800A20F2
:105A8000B6FBF0F67F1CEDE700200700FFB2EDB299
:105A9000AF420BD200A8EDB2691EFFB2C91B085C71
:105AA000FFF7C3FFFFB238557F1CEFE7BDE8FF816A
:105AB00010B50120FFF71AFB04000120FFF716FBC9
:105AC000A10B11F00101800B10F0020050EA01045B
:105AD0000120FFF70BFBC00B10F004002043C0B205
:105AE00010BD70B506000C00DFF8C009F6B2365CD8
:105AF00000200500EDB2042D6EDAF6B2002E03D0C0
:105B0000022E32D018D349E0FFF7D2FF10F0010087
