:10000000D0020010C9400100BD400100BF40010006
:10001000C5400100C1400100C3400100A278F8EFD3
:10002000C7400100C7400100C7400100C7400100B0
:10003000C7400100C7400100D3200100E7C4000011
:10004000813D0100813D0100813D0100813D0100B4
:10005000813D0100813D0100813D0100813D0100A4
:10006000813D0100813D0100813D0100813D010094
:10007000813D0100813D0100813D0100813D010084
:10008000813D0100813D0100813D0100813D010074
:10009000813D0100813D0100813D0100813D010064
:1000A000813D0100813D0100813D0100813D010054
:1000B000813D0100813D0100813D0100813D010044
:0C00C000813D0100813D0100813D0100F7
:10010000E0B5002002900020019000200090012323
:1001100001225FF48021012004F028FE00200290DB
:100120000020019000200090012301225FF40021B3
:10013000012004F01BFE5FF48021012005F038F857
:100140005FF40021012005F033F800200290002028
:10015000019000200090012301225FF40011012092
:1001600004F004FE00200290002001900020009086
:10017000012301225FF48011012004F0F7FD5FF4F8
:100180000011012005F014F85FF48011012005F042
:100190000FF8002002900020019000200090012321
:1001A00001225FF48001012004F0E0FD00200290B4
:1001B0000020019000200090012301225FF4000143
:1001C000012004F0D3FD5FF48001012004F0F0FF72
:1001D0005FF40001012004F0EBFF002002900020FA
:1001E000019000200090012301225FF000710120A6
:1001F00004F0BCFD0020029000200190002000903F
:10020000012301225FF08071012004F0AFFD5FF057
:100210000071012004F0CCFF5FF08071012004F038
:10022000C7FF0020029000200190002000900123D1
:1002300001225FF00061012004F098FD002002908F
:100240000020019000200090012301225FF08051E6
:10025000012004F08BFD002002900020019000207E
:100260000090012301225FF00071032004F07EFD65
:100270000020029000200190002000900123012224
:100280005FF08061012004F071FD5FF000610120EA
:1002900004F08EFF5FF08051012004F089FF5FF0D1
:1002A0000071032004F084FF5FF08061012004F0FE
:1002B0007FFF002002900020019000200090012389
:1002C00001225FF08061032004F050FD00200290C5
:1002D0000020019000200090012301225FF00051D6
:1002E000012004F043FD0020029000200190002036
:1002F0000090012301224FF48061012004F036FDBB
:100300000020029000200190002000900123012293
:100310004FF40071012004F029FD5FF0806103209B
:1003200004F046FF5FF00051012004F041FF4FF45C
:100330008061012004F03CFF4FF40071012004F0C3
:1003400037FF00200290002001900020009002233F
:1003500000221021002004F009FD0020029000205E
:10036000019000200090022300222021002004F0B0
:10037000FDFC00200290002001900020009002234C
:1003800000224021002004F0F1FC00200290002017
:10039000019000200090022300228021002004F020
:1003A000E5FC002002900020019000200090022334
:1003B00000224FF48071002004F0D8FC002002904D
:1003C0000020019000200090022300224FF40071D1
:1003D000002004F0CBFC00200290002001900020BF
:1003E0000090022300220221012004F0BFFC002023
:1003F000029000200190002000900223002204219E
:10040000022004F0B3FC00200290002001900020A4
:100410000090022300220821022004F0A7FC002003
:100420000290002001900020009002230022102161
:10043000022004F09BFC002002900020019000208C
:100440000090022300222021022004F08FFC0020D3
:100450000290002001900020009002230022402101
:10046000022004F083FC0020029000200190002074
:100470000090022300228021022004F077FC00205B
:100480000290002001900020009002230022102101
:10049000012004F06BFC002002900020019000205D
:1004A0000090022300224FF48071022004F05EFCD1
:1004B00000200290002001900020009002230022E2
:1004C0004FF40071022004F051FC00200290002043
:1004D000019000200090022300225FF48031002070
:1004E00004F044FC002002900020019000200090C5
:1004F000022300224FF40041002004F037FC0020CA
:1005000002900020019000200090022301225FF45D
:100510000031002004F02AFC00200290002001900D
:1005200000200090022301225FF48021002004F0CB
:100530001DFC00200290002001900020009002236A
:1005400000224FF48071012004F010FC0020029082
:100550000020019000200090022300225FF400217F
:10056000002004F003FC00200290002001900020F5
:100570000090022300225FF48011002004F0F6FBBB
:100580000020029000200190002000900223002211
:100590005FF40011002004F0E9FB0020029000202D
:1005A000019000200090022300225FF480010020CF
:1005B00004F0DCFB0020029000200190002000905D
:1005C000022300224FF40061022004F0CFFB002040
:1005D00002900020019000200090022300224FF49E
:1005E0008051022004F0C2FB002002900020019004
:1005F00000200090022300225FF40001002004F09C
:10060000B5FB002002900020019000200090022302
:1006100000225FF08071002004F0A8FB002002900F
:100620000020019000200090022300225FF0007162
:10063000002004F09BFB002002900020019000208D
:100640000090022300225FF08061002004F08EFB06
:100650000020029000200190002000900123012240
:100660004FF48041012004F081FB00200290002023
:10067000019000200090012301224FF4004101204D
:1006800004F074FB002002900020019000200090F4
:10069000012301225FF40031012004F067FB4FF4D5
:1006A0008041012004F06DFD4FF40041012004F071
:1006B00068FD5FF40031012004F063FD002002902A
:1006C0000020019000200090022300224FF480615E
:1006D000022004F04BFB07BD10B500200400E4B27B
:1006E000022C36DADFF8940DE4B20A2101FB04F1A2
:1006F00008448079002825D0DFF8800DE4B20A2173
:1007000001FB04F108444088002815D02000C0B245
:1007100000F066FADFF8640DE4B20A2101FB04F18F
:1007200008444088401EDFF8541DE4B20A2202FB50
:1007300004F2114448800AE001212000C0B200F018
:10074000CEF904E001212000C0B200F0C8F9641C19
:10075000C5E710BD10B500200400E4B2042C21DA76
:10076000DFF8600DE4B20A2101FB04F1084480794E
:10077000002815D0DFF84C0DE4B20A2101FB04F18A
:1007800008444088DFF83C1DE4B20A2202FB04F270
:1007900011448988884203D02000C0B200F03CF99F
:1007A000641CDAE710BD10B50400E4B2002C05D0DB
:1007B000022C19D00DD3032C21D02AE05FF4802124
:1007C000012004F0F5FC5FF40021012004F0D9FCC5
:1007D0001FE05FF40011012004F0EAFC5FF48011D7
:1007E000012004F0CEFC14E05FF48001012004F04D
:1007F000DFFC5FF40001012004F0C3FC09E05FF0BE
:100800000071012004F0D4FC5FF08071012004F03D
:10081000B8FC10BD10B50400E4B2002C05D0022CC9
:1008200019D00DD3032C21D02AE05FF480210120C0
:1008300004F0A7FC5FF40021012004F0B9FC1FE0E4
:100840005FF40011012004F09CFC5FF48011012092
:1008500004F0AEFC14E05FF48001012004F091FC90
:100860005FF40001012004F0A3FC09E05FF00071D7
:10087000012004F086FC5FF08071012004F098FCF8
:1008800010BD2DE9F04104000D005FF00008E4B256
:10089000042C80F2BF80EDB2002D2AD00020DFF8BA
:1008A000241CE4B20A2202FB04F2114488710020E5
:1008B000070000200600F6B2042E0EDADFF8040C62
:1008C000F6B20A2101FB06F108448079002802D023
:1008D0000120070001E0761CEDE7FFB2002F3CD1BC
:1008E000FF20DFF82C1C08600020DFF8041D0860E2
:1008F00033E004F0CBFC804604F035FD0020DFF847
:10090000C41BE4B20A2202FB04F2114488710020E5
:10091000070000200600F6B2042E0EDADFF8A40B62
:10092000F6B20A2101FB06F108448079002802D0C2
:100930000120070001E0761CEDE7FFB2002F07D190
:10094000FF20DFF8CC1B08600020DFF8A41C086043
:1009500004F01DFD404604F09DFCE4B2002C05D0DF
:10096000022C19D00DD3032C21D02BE05FF4802171
:10097000012004F01DFC5FF40021012004F018FCAC
:1009800048E05FF40011012004F012FC5FF48011D4
:10099000012004F00DFC3DE05FF48001012004F033
:1009A00007FC5FF40001012004F002FC32E05FF07C
:1009B0000071012004F0FCFB5FF08071012004F065
:1009C000F7FB27E05FF48021012004F0F1FB5FF4E6
:1009D0000021012004F0ECFB5FF40011012004F081
:1009E000E7FB5FF48011012004F0E2FB5FF480017B
:1009F000012004F0DDFB5FF40001012004F0D8FBCE
:100A00005FF00071012004F0D3FB5FF080710120E2
:100A100004F0CEFBBDE8F08110B50400E4B2002C78
:100A200005D0022C0FD008D3032C12D016E05FF4AF
:100A30008021012004F0D3FB10E05FF400110120BD
:100A400004F0CDFB0AE05FF48001012004F0C7FB55
:100A500004E05FF00071012004F0C1FB10BD10B58F
:100A60000400E4B2002C02D0012C06D00AE05FF0B2
:100A70000061012004F09CFB04E05FF08061032032
:100A800004F096FB10BD10B50400E4B2002C02D0B7
:100A9000012C06D00AE05FF00061012004F071FB38
:100AA00004E05FF08061032004F06BFB10BD10B523
:100AB0000400E4B2002C02D0012C06D00AE05FF062
:100AC0000071032004F05DFB04E04FF4806101201D
:100AD00004F057FB0120DFF8F41C086010BD2DE97D
:100AE000F04104000D005FF00008E4B2022C75DA5A
:100AF000EDB2002D26D00020DFF88019E4B20A22E2
:100B000002FB04F211448871002007000020060057
:100B1000F6B2022E0EDADFF86409F6B20A2101FB02
:100B200006F108448079002802D00120070001E086
:100B3000761CEDE7FFB2002F34D10020DFF88C1CCB
:100B400008602FE004F0A2FB804604F00CFC0020BB
:100B5000DFF82819E4B20A2202FB04F2114488717A
:100B60000020070000200600F6B2022E0EDADFF8A1
:100B70000C09F6B20A2101FB06F10844807900282D
:100B800002D00120070001E0761CEDE7FFB2002F44
:100B900003D10020DFF8341C086004F0F8FB404665
:100BA00004F078FBE4B2002C02D0012C06D00BE05C
:100BB0005FF00071032004F0FBFA0FE04FF4806156
:100BC000012004F0F5FA09E05FF00071032004F061
:100BD000EFFA4FF48061012004F0EAFABDE8F081F9
:100BE00010B50400E4B2002C02D0012C06D00AE0BB
:100BF0005FF08051012004F0F2FA04E05FF0005150
:100C0000012004F0ECFA10BD2DE9F04104000D00C4
:100C100016001F005FF00008FFB2022F64DAE4B292
:100C20003C2C01DA3C20040000213800C0B2FFF760
:100C300056FF04F02BFB804604F095FBDFF83C08E0
:100C4000FFB20A2101FB07F108444470DFF82C08C9
:100C5000FFB20A2101FB07F108444580DFF81C08B8
:100C6000FFB20A2101FB07F108448580DFF80C0878
:100C7000FFB20A2101FB07F146540120DFF8FC17FF
:100C8000FFB20A2202FB07F211448871ADB2E4B24E
:100C900004FB05F04FF47A71B0FBF1F0801CDFF833
:100CA000DC17FFB20A2202FB07F211440881F6B2F8
:100CB000002E04D13800C0B2FFF7D1FE03E03800A7
:100CC000C0B2FFF7E0FE0020DFF8D81C0860E4B2F5
:100CD000DFF8D40C04603800C0B2FFF7E8FE04F07F
:100CE00056FB404604F0D6FABDE8F0812DE9F04706
:100CF00082B005000E00170098460A9C5FF0000ABB
:100D0000E4B2042C80F28980ADB2B5F5FA6F02DA54
:100D10004FF4FA600500B6B2B6F52F7F02DA4FF451
:100D20002F70060000212000C0B2FFF7AAFD04F0DA
:100D3000ADFA824604F017FBDFF8D807E4B20A21C7
:100D400001FB04F1405C814604F021FB504604F0B5
:100D5000A1FA48463900C0B2C9B2884204D06A46F6
:100D600000211E2004F09CFB04F090FA824604F05F
:100D7000FAFADFF8A007E4B20A2101FB04F1084403
:100D80004580DFF89007E4B20A2101FB04F1084432
:100D90008680DFF88007E4B20A2101FB04F14754A2
:100DA000DFF87007E4B20A2101FB04F10844A0F85F
:100DB00008800020DFF8F41B0860ADB2DFF8F00B0C
:100DC0000560B6B2DFF8EC0B06602800310080B297
:100DD00089B2884207D0FF20DFF834170860092065
:100DE000DFF80C180860FFB2002F04D12000C0B259
:100DF000FFF7D9FC03E02000C0B2FFF70BFD012094
:100E0000DFF81017E4B20A2202FB04F211448871E1
:100E100004F0BDFA504604F03DFABDE8F38710B582
:100E200000200400E4B2042C22DADFF89806E4B2D1
:100E30000A2101FB04F108440089002811D0DFF8E1
:100E40008406E4B20A2101FB04F108440089401E33
:100E5000DFF87016E4B20A2202FB04F211440881A2
:100E600004E001212000C0B2FFF70BFD641CD9E7AC
:100E700000200400E4B2022C22DADFF85409E4B2C4
:100E80000A2101FB04F108440089002811D0DFF891
:100E90004009E4B20A2101FB04F108440089401E24
:100EA000DFF82C19E4B20A2202FB04F21144088193
:100EB00004E001212000C0B2FFF711FE641CD9E755
:100EC00010BD7FB500F00BF905F080FA060005F0C3
:100ED00086FA00282AD0DFF8E00A0078C0F3001074
:100EE000C0B200281CD1F6B2042E02D103F0B2FD2C
:100EF00016E0F6B2002E02D103F000FE10E0F6B2CA
:100F0000012E02D103F03CFE0AE0F6B2022E02D11D
:100F100003F078FE04E0F6B2032E01D103F09EFE4A
:100F200002AA00210A2004F0BBFACDE7DFF88C0A00
:100F3000006805F0D7FB02A8009003AB0DF1060294
:100F40000021002005F0E2FD0500002DBCD0BDF819
:100F50000600012822D128788DF804009DF80400AD
:100F600063280BD100208DF80400012201A9DFF8CD
:100F7000700D05F007FB00F0B2F8A8E09DF8040042
:100F8000202840F0A480F6B2012E03D1002001F009
:100F90009EFC9CE0002002F0CEF898E0BDF8060030
:100FA000402840F0948005F011FA06002C00E0780B
:100FB00010283AD011284FD0132836D020280AD034
:100FC00021281DD022284DD023286AD038286FD060
:100FD000392875D07BE0F6B2032E03D1200000F053
:100FE000EFFC0CE0F6B2012E03D1200001F06FFC03
:100FF00005E0F6B2022E02D1200002F09CF866E075
:10100000F6B2032E03D1200000F07AFE0CE0F6B217
:10101000012E03D1200001F05BFE05E0F6B2022EA6
:1010200002D1200002F05CF951E0F6B2042E07D1A3
:101030002079B0F13001C9B2200002F073FE0AE05D
:1010400005F0C4F9012803D005F0C0F9002802D149
:10105000200001F011F93AE0DFF8880C4078DFF861
:10106000881C0870F6B2042E03D1200003F094F817
:1010700016E0F6B2032E03D1200000F09FFF0FE030
:10108000F6B2012E02D0F6B2002E03D1200001F0FC
:10109000E1FA05E0F6B2022E02D1200002F06CFA6D
:1010A00015E0F6B2042E02D1200003F02FF90EE075
:1010B000F6B2022E03D10021200002F000FB06E070
:1010C000F6B2022E03D10021200002F0EBFB0DF15D
:1010D0000A022900DFF8140C07F055F8F4E62DE9B0
:1010E000F04F83B05FF000085FF000095FF0000A86
:1010F00000208DF80400012201A9DFF8E40B05F0BF
:1011000041FA05F063F983465FFA8BFBBBF1010FEF
:1011100000F019815FFA8BFBBBF1000F00F0138127
:101120005FFA8BFBBBF1030F40F0A5800022012189
:1011300040F2DC5000F012F907F0E4F90400DFF8A7
:10114000B00B007E2100C14011F00100DFF8A01BB0
:10115000897E2200CA40510011F0060108438DF833
:1011600004009DF80400002801D0012080460022E0
:101170000121232000F05AF900220021232000F051
:1011800055F9DFF8240E40880500DFF8680BADB292
:10119000B0FBF5F00600DFF8600B40780700012097
:1011A00000F06EF9002807D10121012000F022FA99
:1011B000002801D1012081465FFA89F9B9F1000FB9
:1011C00026D13800C0B2009033009BB20022290023
:1011D00089B24FF4FA60FFF789FD0121701D80B2DA
:1011E00000F0B3F98DF8050000213800C0B2FFF718
:1011F00048FB9DF80500002808D00121012000F0DF
:10120000F9F9002804D10120814601E0012081463E
:101210005FFA88F8B8F1000F0DD05FFA89F9B9F1DB
:10122000000F08D0DFF8D40A007850F06000DFF833
:10123000CC1A087087E05FFA88F8B8F1000F0AD07E
:10124000DFF8B80A007810F09F0050F02000DFF8B7
:10125000AC1A087077E05FFA89F9B9F1000F72D023
:10126000DFF8980A007810F09F0050F04000DFF897
:101270008C1A087067E05FFA8BFBBBF1020F60D13C
:101280000022012140F2DC5000F068F807F03AF942
:101290000400DFF85C0A007E2100C14011F001006B
:1012A000DFF84C1A897E2200CA40510011F0060175
:1012B00008438DF804009DF80400002801D00120A7
:1012C00080460121012000F059F95FFA88F8B8F151
:1012D000000F12D05FFA89F9B9F1000F0DD05FFA53
:1012E0008AFABAF1000F08D0DFF8100A007850F03F
:1012F0006000DFF8081A08701EE05FFA88F8B8F19D
:10130000000F0AD0DFF8F409007810F09F0050F0C9
:101310002000DFF8E81908700EE05FFA89F9B9F1EA
:10132000000F09D0DFF8D409007810F09F0050F0CA
:101330004000DFF8C81908700120DFF8701C087041
:1013400001E005F043F801208DF80400012201A915
:10135000DFF88C0905F016F9BDE8F78F2DE9F84F95
:1013600004000D001600DFF8480CF6B210F80680F5
:10137000DFF8400CF6B210F806905FF0000B4B4619
:10138000DBB22A00D2B2210089B24046C0B2FFF7D8
:101390003BFC03F07BFF834603F0E5FFDFF83004FE
:1013A0005FFA89F90A2101FB09F1084400898246A4
:1013B00003F0EDFF584603F06DFF00200700FFB279
:1013C000002F26D16A4600210A2004F069F803F0B4
:1013D0005DFF834603F0C7FFDFF8F4035FFA89F986
:1013E0000A2101FB09F108444088002801D10120AD
:1013F000070003F0CCFF584603F04CFF1FFA8AFAAF
:10140000BAF1000F02D0BAF1010AD8E702200700B2
:10141000D5E700214846C0B2FFF761FBFFB2012FBC
:1014200001D1012000E00020BDE8F28FF0B583B0CB
:1014300004000D001600DFF8C008F6B2875D380022
:10144000C0B2009023009BB22A00D2B2DFF8580B42
:10145000FFB230F817104FF4FA60FFF747FC01AA0B
:101460000021A4B20A2000FB04F004F019F80021C6
:101470003800C0B2FFF705FAF7BD00001C7200107B
:10148000F8B50400E4B2042C01DB002019E02000D0
:10149000C0B204F06FFF06003000C0B204F075FF68
:1014A0000600DFF84C08F6B210F83600050007F029
:1014B000B1F807003800E840C00701D5012000E07E
:1014C0000020F2BD88710010F8B50400E4B2042CCD
:1014D00001DB00201AE02000C0B204F04BFF060040
:1014E0003000C0B204F051FF0600DFF80408F6B285
:1014F00000EBC6004078050007F08CF807003800C4
:10150000E840C00701D5012000E00020F2BD000046
:10151000008001408871001070B582B004000D0099
:1015200026002800C0B2FFF7ABFF00280BD16A46A7
:1015300000210A2003F0B4FFB6B2002E01D0761EBF
:10154000EFE7002000E0012076BD70B582B0040016
:101550000D0026002800C0B2FFF7B6FF00280BD10F
:101560006A4600210A2003F09BFFB6B2002E01D08C
:10157000761EEFE7002000E0012076BD2DE9F8435C
:1015800004000D00DFF82C0AEDB2475D5FF00008A3
:10159000DFF81C0AFFB210F807902800C0B2FFF76E
:1015A0006FFF002801D001201FE0404610F1010824
:1015B000C0B2032818DA3B00DBB201224FF44871B5
:1015C0004846C0B2FFF720FB002140F21630FFF77B
:1015D000A3FF060000213800C0B2FFF780FAF6B280
:1015E000002EE2D0012000E00020BDE8F2830000E0
:1015F000048001402DE9F84304000D00DFF8F806EF
:10160000EDB210F805805FF00009DFF89C095FFA81
:1016100088F830F8180007002800C0B2FFF730FF44
:10162000002801D0012031E0E4B2002C0CD140466A
:10163000C0B2009050230122390089B24FF4FA6001
:10164000FFF754FB012021E0484610F10109C0B228
:1016500003281ADA4046C0B2009050230122390014
:1016600089B24FF4FA60FFF741FB2900C9B2462066
:10167000FFF752FF060000214046C0B2FFF701F914
:10168000F6B2002EE0D0012000E00020BDE8F28399
:101690002DE9F04383B004F099FE814606F032FF55
:1016A000DFF8C01B086106F0DBFEDFF8BC0B00684A
:1016B000DFF8B01B4969884200F08680DFF8300609
:1016C00000788DF80400DFF82806007A8DF8050010
:1016D000DFF81C06007C8DF80600DFF81406407861
:1016E0008DF80000DFF80806407A8DF80100DFF879
:1016F0000006407C8DF8020000200400E4B2032CB8
:101700005CDA01A8E4B2005D0500DFF8580B40691F
:10171000E84010F00100C0B2002812D0DFF8480BFA
:101720000068E84010F00100C0B2002809D1200094
:10173000C0B204F02AFE804601214046C0B2FFF745
:10174000A0F86846E4B2005D0600DFF8180B4069B7
:10175000F04010F00100C0B2002812D0DFF8080BF2
:101760000068F04010F00100C0B2002809D120004C
:10177000C0B204F00AFE804601214046C0B2FFF725
:1017800080F8DFF86C05E4B200EBC4008079070054
:10179000DFF8D00A4069F840C0070DD4DFF8CC0A62
:1017A000E4B261010844807B10F0F700DFF8BC1A56
:1017B000E4B2620111448873641C9FE7DFF8A40A55
:1017C0004069DFF8A41A0860BDE8F7830480004090
:1017D0001C7200102DE9F04F85B00400DFF81805E9
:1017E00090F80090DFF8CC0790F800A0DFF8C00771
:1017F0005FFA8AFA10F80A008DF80400DFF8A807EB
:101800005FFA89F930F81900ADF80A00DFF8600ACC
:10181000007E8DF80700DFF8580A807E8DF80600FC
:10182000DFF84C0AC07E8DF805005FF0000BE4B2D3
:10183000012C3CD106F0EEFE8046DFF8340A007E33
:101840004146C14011F00100DFF8241A897E42466A
:10185000CA40510011F0060108438DF808009DF8B8
:101860000800002823D0002201214FF4E160FFF797
:1018700075FD002802D00320070001E004200700C6
:101880009DF805004146C14011F00100C0B200289A
:101890000AD09DF806004146C14011F00100C0B2D7
:1018A000002801D1052007003800C0B277E01420DD
:1018B00006009DF804004FF4E16148434FF4FA71CB
:1018C000B0FBF1F0001D05004846C0B20090462371
:1018D0000122BDF80A104FF4FA60FFF707FA5346E9
:1018E000DBB200224FF4E1619DF80400FFF78CF9B0
:1018F00000200700FFB2002F33D103AA00210520EA
:1019000003F0CEFDB6B2002E01D0761EF2E706F04F
:1019100081FE80469DF807004146C140C80701D5B9
:101920000120070003F0B2FC834603F01CFDDFF842
:10193000E80B5FFA8AFA0A2101FB0AF108444088A1
:10194000002801D10320070003F021FD584603F0D1
:10195000A1FCADB2002D01D06D1ECBE70420070025
:10196000C8E700214846C0B2FEF78BFF0021504671
:10197000C0B2FFF7B4F806F0C5FD8046DFF8F00806
:10198000007E4146C140C80701D501200700002262
:1019900000214FF4C870FFF749FD3800C0B205B010
:1019A000BDE8F08F088000401880004008800140AA
:1019B000188001401C8001409C720010747200105D
:1019C000F0B58BB00400002700200500002C01D1E9
:1019D00001200500002007007F1CFFB2042F0FDA52
:1019E0003800C0B2FFF7F6FE0600F6B2012E07D0AF
:1019F000F6B2042E02D0F6B2052EEDD16420070017
:101A0000FFB2042F15DB53208DF808002800C0B268
:101A100001900120009002ABA27861785E2007F06F
:101A200020FA132319223221042008F0BEF80020E6
:101A30000BE02800C0B20190002000900023A278A3
:101A400061785F2007F00DFA01200BB0F0BD2DE9A1
:101A5000F04F85B000250026A74840788DF8040097
:101A6000DFF850050778DFF84805FFB2C05D8DF854
:101A70000500DFF834059DF8041030F81100ADF8CA
:101A800010009C48BDF81010B0FBF1F0ADF80E004E
:101A90009748C07E8DF80C00954890F81A809448BD
:101AA000007E8DF80700924840788DF806005FF0C0
:101AB00000099DF805004FF4167148434FF4FA7180
:101AC000B0FBF1F0001D82463B00DBB200224FF478
:101AD00016719DF80500FFF797F800200400E4B2A6
:101AE000002C43D10DF1120200210A2003F0D8FC92
:101AF00006F090FD0290029830FA08F0C00704D575
:101B0000EDB2002D01D101200500029830FA08F055
:101B1000C00704D4EDB2002D01D00120060003F06F
:101B2000B5FB814603F01FFCDFF8EC09FFB20A2188
:101B300001FB07F108444088002807D1F6B2002EC7
:101B400002D00120040001E00220040003F01FFC89
:101B5000484603F09FFB1FFA8AFABAF1000F02D041
:101B6000BAF1010ABBE704200400B8E700213800FD
:101B7000C0B2FEF7B4FF06F0C5FC0290029830FA3E
:101B800008F010F00100C0B2002808D102989DF8BA
:101B90000710C84010F00100C0B2002801D000209A
:101BA0009AE014208346BDF80E004000001D8246D6
:101BB0009DF804000090BDF80E300022BDF8101012
:101BC0004FF4FA60FFF792F800200400E4B2002C12
:101BD00032D10DF112020021052003F061FC1FFA41
:101BE0008AFABAF1000F01D0BAF1010A5FFA8BFB51
:101BF000BBF1000F02D0BBF1010BE7E706F00AFDD5
:101C0000029002989DF80610C840C0070CD50DF14F
:101C100012020021142003F043FC00219DF804006F
:101C2000FEF72FFE012004001FFA8AFABAF1000F16
:101C3000CCD102200400C9E700219DF80400FEF782
:101C400020FE0020040006F0E5FC029002A80298A5
:101C500030FA08F010F00100C0B2002836D1029826
:101C60009DF80C10C84010F00100C0B200282DD122
:101C700002A801200400DFF8F405807BC0F3001007
:101C8000C0B2002822D1DFF8E405807B50F01000BC
:101C9000DFF8D8158873DFF8D4054068DFF8CC1575
:101CA0004861DFF8C8050078DFF8C0150876DFF86E
:101CB000BC050078401CDFF8B41548760820DFF832
:101CC000AC1588760021002008F09EFA0121012041
:101CD000FFF790FC2000C0B205B0BDE8F08F000017
:101CE0003868001048710010757300107070001093
:101CF000B07100100071020058720010A87200103C
:101D00002DE9F04F8DB004005FF0000BAA48C678B3
:101D1000A948877EA84890F81B80A64890F80090B4
:101D2000A34890F800A000200500002C01D101205C
:101D3000050001210120FFF75DFC00280FD1602084
:101D40008DF810002800C0B201900120009004AB73
:101D5000A27861785E2007F084F8012020E106F087
:101D600059FC03900398F040C0070FD444208DF82D
:101D700010002800C0B201900120009004ABA278AE
:101D800061785E2007F06DF8012009E1DFF8DC04DE
:101D9000807BC0F38000C0B200280FD164208DF892
:101DA00010002800C0B201900120009004ABA2787E
:101DB00061785E2007F055F80120F1E0DFF8AC040F
:101DC000007C00280FD03B208DF810002800C0B206
:101DD00001900120009004ABA27861785E2007F0AA
:101DE00040F80220DCE0DFF884040078DFF87C149F
:101DF000497888420FD336208DF810002800C0B2F1
:101E000001900120009004ABA27861785E2007F079
:101E100028F80120C4E003986749097EC84010F003
:101E200001000399644A927ED140490011F00601F5
:101E300008438DF808009DF8080000280FD14220C3
:101E40008DF810002800C0B201900120009004AB72
:101E5000A27861785E2007F004F80220A0E0DFF8A5
:101E60000C04807B10F0EF00DFF800148873002072
:101E700083461BF1010B5FFA8BFBBBF1040F3FDACA
:101E8000FFF7E5FD002822D006F0C4FB039003A86D
:101E90000398F84010F00100C0B2002807D1039861
:101EA00030FA08F010F00100C0B200280ED003A8EC
:101EB000022008F0DCFE0DF10A020021642003F08C
:101EC000EFFA06F0A7FB039003A8F1E718E0002162
:101ED00043F2467008F030FA4B46DBB2012214217F
:101EE0005046C0B2FEF790FE0DF10A020021C82054
:101EF00003F0D6FA00214846C0B2FEF7F0FDB8E77D
:101F00005FFA8BFBBBF1040F35DA2800C0B20190F9
:101F1000002000900023A27861785F2006F0A1FFE6
:101F2000DFF84803807B10F0DF00DFF84013887390
:101F3000DFF83803807BC0B2C009C0B2002818D0D7
:101F4000DFF82803C07A042803DB0020DFF81C1325
:101F5000C8720023DFF8300ADFF81013C97A425C38
:101F6000DFF8240ADFF80413C97A415C022007F085
:101F70001CFE002014E052208DF810002800C0B292
:101F800001900120009004ABA27861785E2006F0F9
:101F900068FF132319223221042007F006FE0120D6
:101FA0000DB0BDE8F08F0000607200107373001078
:101FB0005673001054730010B071001070B586B0E5
:101FC0000400002600200500002C01D1012005009E
:101FD000761CF6B2042E03DA00F0A0FA0028F7D03F
:101FE00006F0F6FDF6B2042E0CDA2800C0B201901D
:101FF000002000900023A27861785F2006F031FF76
:10200000012014E054208DF808002800C0B201908F
:102010000120009002ABA27861785E2006F021FFDB
:10202000132319223221042007F0BFFD002006B03F
:1020300070BD2DE9F04F85B000208DF80900002417
:102040000025DFF8800C0678DFF87C0C0778DFF8D5
:102050007C0CFFB2C05D8DF808008648F6B230F8FF
:102060001600ADF80C008248007E8DF8070080480D
:10207000807E8DF806000A2083460A2080469DF85F
:1020800008004FF4167148434FF47A71B0FBF1F039
:102090000A3082465FF000093000C0B200909623FB
:1020A0000122BDF80C104FF4FA60FEF71FFE3B0052
:1020B000DBB201224FF496619DF80800FEF7A4FD03
:1020C00000208DF8050000208DF804009DF8040024
:1020D000002877D10DF10A0200210A2003F0E0F96F
:1020E0005FFA8AFABAF1000F01D0BAF1010A5FFA79
:1020F0008BFBBBF1000F02D0BBF1010BE6E706F052
:1021000089FA049004989DF80710C840C0070BD5C1
:1021100000213000C0B2FEF7B4FB9DF80500002896
:1021200002D101208DF805005FFA88F8B8F1000FA0
:1021300024D104989DF80610C840C00701D501209D
:10214000040004989DF80710C840C00706D5002178
:102150000020FEF7C4FC01208DF8090004989DF8CA
:102160000610C840C0070BD4E4B2002C08D00021F0
:102170000020FEF7B4FC0120050001E0B8F10108E1
:1021800003F084F8814603F0EEF89DF8090000287A
:1021900002D1EDB2002D03D001208DF804000BE038
:1021A000DD48FFB20A2101FB07F1084440880028FE
:1021B00002D102208DF8040003F0E9F8484603F04C
:1021C00069F883E700213800C0B2FEF788FC9DF86B
:1021D0000500002806D13100C9B26420FFF79CF940
:1021E0008DF8050000213000C0B2FEF74AFB0DF16A
:1021F0000A0200210A2003F053F99DF80400022886
:1022000001DB00202BE01948807BC0F30010C0B236
:10221000002823D11548807B50F0100013498873A3
:102220000021802007F08CFF104840680F4948616A
:102230000E4800780D4908760C480078401E0B497E
:1022400048760820094988760021002007F0DCFF45
:102250000DF10A0200210A2003F022F9012005B045
:10226000BDE8F08F04720010B8720010786F001093
:10227000B0710010607200102DE9F0438BB00400C3
:102280005FF00009DFF8BC0C90F803800020050027
:10229000002C01D10120050000208146002007000C
:1022A00019F101095FFA89F9B9F1040F68DA02F04E
:1022B000CDFA0700FFB2002F05D102AA00210A20A3
:1022C00003F0EEF85CE0FFB2012F1BD141208DF846
:1022D0000C002800C0B201900120009003ABA2784E
:1022E00061785E2006F0BDFD0A208DF80C0000200C
:1022F0008DF80D00022203A9DFF84C0C04F042F91E
:10230000002006E1FFB2032F1BD145208DF80C0001
:102310002800C0B201900120009003ABA278617840
:102320005E2006F09EFD0A208DF80C0001208DF83D
:102330000D00022203A9DFF8100C04F023F900209D
:10234000E7E0FFB2042FABD153208DF80C0028003A
:10235000C0B201900120009003ABA27861785E20AA
:1023600006F07FFD0A208DF80C0002208DF80D008C
:10237000022203A9DFF8D00B04F004F90020C8E022
:102380005FFA89F9B9F1040F15DB53208DF80C00C1
:102390002800C0B201900120009003ABA2786178C0
:1023A0005E2006F05EFD132319223221042007F07F
:1023B000FCFB0020ADE006F02DF90600300030FAFD
:1023C00008F0C0070FD444208DF80C002800C0B2DC
:1023D00001900120009003ABA27861785E2006F0A6
:1023E00040FD002095E0DFF8F80D807BC0F3800011
:1023F000C0B200280FD164208DF80C002800C0B2B4
:1024000001900120009003ABA27861785E2006F075
:1024100028FD00207DE0DFF8C80D007C00280FD0EB
:102420003B208DF80C002800C0B2019001200090E4
:1024300003ABA27861785E2006F013FD002068E00F
:10244000DFF89C0D007800280FD163208DF80C0078
:102450002800C0B201900120009003ABA2786178FF
:102460005E2006F0FEFC002053E0DFF8740D807B58
:1024700010F0EF00DFF8681D88730020814619F125
:1024800001095FFA89F9B9F1040F1BDA06F0C2F805
:102490000600300030FA08F0C0070FD444208DF851
:1024A0000C002800C0B201900120009003ABA2787C
:1024B00061785E2006F0D5FC00202AE0FFF7B9FD28
:1024C0000028DCD05FFA89F9B9F1040F15DB53203D
:1024D0008DF80C002800C0B201900120009003ABE1
:1024E000A27861785E2006F0BCFC13231922322109
:1024F000042007F05AFB00200BE02800C0B2019036
:10250000002000900023A27861785F2006F0A9FCEB
:1025100001200BB0BDE8F0831C7200102DE9F04FD4
:1025200083B00026A0275FF00008DFF8180A007EBD
:102530008DF80100DFF80C0A90F81A90DFF88C078C
:102540005FFA88F810F808008DF800005FF0000BC3
:1025500001220DF10201202008F012FD002806D012
:102560009DF80200002802D14FF4FA700700BFB2B4
:102570009DF8000000FB07F04FF47A71B0FBF1F01A
:10258000801C82464346DBB20122390089B29DF8A5
:102590000000FEF739FB00200400E4B2002C36D125
:1025A00006F038F80500280030FA09F0C00701D419
:1025B0000120060002F06AFE834602F0D4FEDFF836
:1025C0001C0D5FFA88F80A2101FB08F108444088D5
:1025D000002807D1F6B2002E02D00120040001E04D
:1025E0000220040002F0D3FE584602F053FE5FFAC8
:1025F0008AFABAF1000F02D0BAF1010A01E0042010
:10260000040001AA00210A2002F04AFFC5E70021C8
:102610004046C0B2FEF763FAE4B2022C17DB05F0C5
:10262000F9FF05009DF801002900C14011F00100EB
:10263000C0B2002809D0280030FA09F010F00100DB
:10264000C0B2002801D1012002E0002000E00120FA
:10265000BDE8FE8FF0B587B004000025002006001D
:10266000002C01D10120060005F0D4FF070038003E
:1026700001F085FF00280FD142208DF808003000BE
:10268000C0B201900120009002ABA27861785E2078
:1026900006F0E7FB00202CE06D1CEDB2042D03DA00
:1026A000FFF73CFF0028F7D0EDB2042D0CDA300024
:1026B000C0B20190002000900023A27861785F20D2
:1026C00006F0CFFB012014E054208DF80800300004
:1026D000C0B201900120009002ABA27861785E2028
:1026E00006F0BFFB132319223221042007F05DFA04
:1026F000002007B0F0BD2DE9F84F00260027DFF8D5
:10270000C80590F80080DFF8C4055FFA88F810F873
:1027100008008DF80000DFF82C08007E8DF801001D
:10272000DFF8200890F81A905FF0000B05F072FFB8
:102730000500280030FA09F0C00760D59DF80000B8
:102740004FF4966148434FF4FA71B0FBF1F0801CEE
:1027500082464346DBB200224FF496619DF80000AA
:10276000FEF752FA00200400E4B2002C42D105F03A
:1027700051FF0500280030FA09F0C0070CD40DF114
:1027800002020021142002F08BFE00214046C0B25C
:10279000FEF7A5F90120060002F078FD834602F05D
:1027A000E2FDF6B2002E02D0012004000CE0DFF8BA
:1027B0002C0B5FFA88F80A2101FB08F108444088D5
:1027C000002801D10220040002F0E1FD584602F089
:1027D00061FD5FFA8AFABAF1000F02D0BAF1010A7C
:1027E00001E0042004000DF102020021052002F0A6
:1027F00057FEB9E700214046C0B2FEF770F9E4B2D7
:10280000022C01DB002060E09DF800004FF496618F
:1028100048434FF4FA71B0FBF1F0801C8246434606
:10282000DBB201224FF496619DF80000FEF7ECF94F
:1028300000200400E4B2002C3CD105F0EBFE0500C2
:10284000280030FA09F0C00706D500214046C0B282
:10285000FEF745F90120070002F018FD834602F05B
:1028600082FDFFB2002F02D0012004000CE0DFF84F
:102870006C0A5FFA88F80A2101FB08F108444088D5
:10288000002801D10220040002F081FD584602F028
:1028900001FD5FFA8AFABAF1000F02D0BAF1010A1B
:1028A00001E0042004000DF102020021052002F0E5
:1028B000F7FDBFE700214046C0B2FEF710F9E4B2D1
:1028C000022C01DB002000E00120BDE8F28F2DE9A1
:1028D000F04387B00400002503F078FD80465FF0E8
:1028E000000901210020FEF785FE5FFA88F8B8F1A3
:1028F000010F09D105F08EFE0700380002F07BF8C9
:10290000002801D002203CE000200600002C01D16C
:102910000120060002F0BAFC814602F024FD0020EE
:10292000DFF8841D088002F032FD484602F0B2FC58
:102930006D1CEDB2042D03DAFFF7DDFE0028F7D0A1
:1029400006F046F9EDB2042D0CDA3000C0B2019069
:10295000002000900023A27861785F2006F081FAC1
:1029600001200EE051208DF808003000C0B2019027
:102970000120009002ABA27861785E2006F071FA27
:10298000002007B0BDE8F083900000102DE9F04F63
:1029900085B000208DF80D0000250026C948077875
:1029A000C94890F80080C9485FFA88F810F8080014
:1029B0008DF80500DFF8F40CFFB230F81700ADF821
:1029C0001200DFF8EC0CBDF81210B0FBF1F0ADF81E
:1029D0001000DFF87005807E8DF80400DFF86405D4
:1029E000C07E8DF80600DFF85C0540788DF80C009D
:1029F000DFF8500580798DF807005FF000099DF839
:102A000005004FF4C87148434FF47A71B0FBF1F000
:102A1000801C82464346DBB200224FF4C8719DF809
:102A20000500FEF7F1F800200400E4B2002C7DD18F
:102A300005F0F0FD029002989DF80610C840C0070E
:102A400002D501208DF80D0002989DF80410C840B1
:102A5000C00701D401200500029801F0C4FE02283D
:102A60001DDB00214046C0B2FEF739F8962001F088
:102A700038FD00285AD14346DBB2002240F226211D
:102A80009DF80500FEF7C0F89DF8050040F22621EC
:102A900048434FF47A71B0FBF1F0801C82460298F3
:102AA0009DF80410C84010F00100C0B200280FD1FA
:102AB00002989DF80610C84010F00100C0B200282E
:102AC00006D100214046C0B2FEF709F803200400F9
:102AD00002F0DCFB814602F046FCDFF800085FFAFA
:102AE00088F80A2101FB08F108444088002807D132
:102AF000EDB2002D02D00120040001E0022004000C
:102B000002F045FC484602F0C5FB5FFA8AFABAF1CA
:102B1000000F02D0BAF1010A01E0042004000DF117
:102B20000E0200210A2002F0BBFC7EE70021404695
:102B3000C0B2FDF7D4FF02989DF80410C840C0074A
:102B400001D50020BBE00A208346BDF81000824674
:102B50003800C0B20090BDF810300022BDF812104D
:102B60004FF4FA60FEF7C2F800200400E4B2002C33
:102B700036D15FFA8BFBBBF1000F02D0BBF1010B2A
:102B800027E005F047FD029002989DF80C10C84020
:102B9000C0070CD50DF10E020021142002F080FCBC
:102BA00000213800C0B2FDF76CFE0120040002983D
:102BB0009DF80710C840C00701D5012006005FFA44
:102BC0008AFABAF1000F02D0BAF1010A01E002203C
:102BD00004000DF10E0200210A2002F061FCC5E79D
:102BE00000213800C0B2FDF74CFE0DF10E020021AD
:102BF0000A2002F055FC0020040005F083FC02903E
:102C000002A802989DF80410C84010F00100C0B25C
:102C100000284ED102989DF80610C84010F001001F
:102C2000C0B2002845D102A801200400DFF8B00599
:102C3000807BC0F30010C0B200283AD1DFF8A005B5
:102C4000807B50F01000DFF898158873F6B2002EE4
:102C50000FD0DFF88C050078602805DA002143F2F8
:102C6000467007F069FB09E00021802007F068FA50
:102C700004E0002140F60E3007F05EFBDFF860054F
:102C80004068DFF85C154861DFF854050078DFF82C
:102C900050150876DFF848050078401CDFF840152D
:102CA00048760820DFF8381588760021002007F0E4
:102CB000ABFA01210120FEF79DFC2000C0B205B057
:102CC000BDE8F08F58720010547300105673001056
:102CD0002DE9F04F89B004005FF0000B9948C678E9
:102CE0009848877E974890F81B80DFF8B00B90F8E3
:102CF0000090DFF8AC0B90F800A000200500002C3D
:102D000001D10120050001210120FEF773FC0028FC
:102D10000FD160208DF810002800C0B20190012072
:102D2000009004ABA27861785E2006F09AF800204B
:102D300005E105F06FFC02900298F040C0070FD447
:102D400044208DF810002800C0B2019001200090AE
:102D500004ABA27861785E2006F083F80020EEE0F4
:102D6000DFF87C04807BC0F38000C0B200280FD164
:102D700064208DF810002800C0B20190012000905E
:102D800004ABA27861785E2006F06BF80020D6E0F4
:102D9000DFF84C04007C00280FD03B208DF8100099
:102DA0002800C0B201900120009004ABA2786178A5
:102DB0005E2006F056F80020C1E0DFF82404007819
:102DC000DFF81C14497888420FD336208DF81000A4
:102DD0002800C0B201900120009004ABA278617875
:102DE0005E2006F03EF80020A9E0029801F0FBFC0E
:102DF00000280FD142208DF810002800C0B20190A9
:102E00000120009004ABA27861785E2006F029F8DA
:102E1000002094E000208346DFF8C403807B10F09C
:102E2000EF00DFF8BC1388731BF1010B5FFA8BFB1B
:102E3000BBF1040F3ADAFFF7A9FD002822D005F014
:102E4000E9FB029002A80298F84010F00100C0B21D
:102E5000002807D1029830FA08F010F00100C0B243
:102E600000280ED002A8012007F001FF03AA0021CC
:102E70004FF47A7002F014FB05F0CCFB029002A82C
:102E8000F1E713E0002143F2467007F055FA53468C
:102E9000DBB2012214214846C0B2FDF7B5FE03AAF9
:102EA00000214FF4FA6002F0FBFABDE75FFA8BFBFA
:102EB000BBF1040F2EDA2800C0B201900020009070
:102EC0000023A27861785F2005F0CBFFC448807BA7
:102ED00010F0DF00C2498873C148807BC0B2C009CE
:102EE000C0B2002814D0BE48C07A042802DB0020FB
:102EF000BB49C8720023DFF8CC0BB949C97A425CE0
:102F0000DFF8C00BB649C97A415C022006F04DFEDD
:102F1000012014E052208DF810002800C0B201906A
:102F20000120009004ABA27861785E2005F099FF43
:102F3000132319223221042006F037FE002009B0A5
:102F4000BDE8F08FB0710010386800102DE9F04F27
:102F500083B000260027DFF8480990F80080DFF8EA
:102F60003C095FFA88F810F808008DF80000DFF8D7
:102F7000580B007E8DF80300DFF84C0B807E8DF837
:102F8000010000208DF802005FF001095FF0000BE6
:102F900005F040FB05009DF801002900C140C8076D
:102FA00060D59DF800004FF4966148434FF4FA71E4
:102FB000B0FBF1F0801C82464346DBB24A46D2B2F7
:102FC0004FF496619DF80000FDF71EFE00200400FE
:102FD000E4B2002C41D105F01DFB05009DF8010075
:102FE0002900C140C8070BD401AA0021142002F017
:102FF00057FA00214046C0B2FDF771FD01200600DE
:1030000002F044F9834602F0AEF9F6B2002E02D087
:10301000012004000CE0DFF89C065FFA88F80A2122
:1030200001FB08F108444088002801D10220040077
:1030300002F0ADF9584602F02DF95FFA8AFABAF1BA
:10304000000F02D0BAF1010A01E00420040001AA35
:103050000021052002F024FABAE700214046C0B260
:10306000FDF73DFDE4B2022C01DB002061E09DF89C
:1030700000004FF4966148434FF4FA71B0FBF1F051
:10308000801C82464346DBB29DF802204FF49661D5
:103090009DF80000FDF7B8FD00200400E4B2002C0C
:1030A0003CD105F0B7FA05009DF803002900C140A6
:1030B000C80706D400214046C0B2FDF710FD01202C
:1030C000070002F0E3F8834602F04DF9FFB2002F4B
:1030D00002D0012004000CE0DFF8D8055FFA88F880
:1030E0000A2101FB08F108444088002801D1022090
:1030F000040002F04CF9584602F0CCF85FFA8AFA64
:10310000BAF1000F02D0BAF1010A01E00420040074
:1031100001AA0021052002F0C3F9BFE700214046C3
:10312000C0B2FDF7DCFCE4B2022C01DB002000E0C1
:103130000120BDE8FE8F2DE9F04186B00400002596
:1031400003F044F907005FF0000800200600002C9F
:1031500001D10120060002F099F8804602F003F93F
:103160000020DFF84415088002F011F9404602F013
:1031700091F86D1CEDB2042D03DAFFF7E7FE00288D
:10318000F7D005F025FDEDB2042D10DA3000C0B205
:103190000190002000900023A27861785F2005F064
:1031A00060FE0020DFF8781B0870012014E0512039
:1031B0008DF808003000C0B201900120009002ABF1
:1031C000A27861785E2005F04CFE1323192232218B
:1031D000042006F0EAFC002006B0BDE8F081000003
:1031E000786F00102DE9F04F83B000250026DFF83E
:1031F000B0060778DFF8A406FFB2C05D8DF80100C5
:10320000DFF8C408807E8DF800005FF000085FF0F2
:1032100001095FF0000B9DF801004FF4C8714843AD
:103220004FF4FA71B0FBF1F0801C82463B00DBB238
:103230004246D2B24FF4C8719DF80100FDF7E4FC9C
:1032400000200400E4B2002C37D105F0E3F901902E
:1032500001989DF80010C840C00701D40120060065
:1032600002F014F8834602F07EF8DFF84804FFB25B
:103270000A2101FB07F108444088002807D1F6B273
:10328000002E02D00120040001E00220040002F020
:103290007EF8584601F0FEFF5FFA8AFABAF1000F95
:1032A00002D0BAF1010A01E0042004000DF102028B
:1032B0000021052002F0F4F8C4E700213800C0B274
:1032C000FDF70DFC01989DF80010C840C00701D51E
:1032D000002001E02000C0B2BDE8FE8F1C7200108B
:1032E0002DE9F04F87B004005FF0000BDFF8D8073E
:1032F000C778DFF8D407807E8DF80900DFF8C807AB
:10330000C07E8DF80800DFF8940590F80080DFF8A3
:10331000900590F800905FF0000A0121022001F072
:1033200047FF01F0B3FF824602F01DF8DFF8E40C1E
:1033300000884004400CDFF8DC1C088002F027F80D
:10334000504601F0A7FF00200500002C01D101200C
:10335000050005F05FF906003000F840C0070FD403
:1033600044208DF80C002800C0B20190012000908C
:1033700003ABA27861785E2005F073FD002072E057
:10338000300001F030FA00280FD142208DF80C00F7
:103390002800C0B201900120009003ABA2786178B0
:1033A0005E2005F05EFD00205DE0002083461BF1FD
:1033B000010B5FFA8BFBBBF1040F08DAFFF712FF7A
:1033C000012804D00120DFF8501C0870EFE75FFAF5
:1033D0008BFBBBF1040F31DA2800C0B20190002052
:1033E00000900023A27861785F2005F03AFDDFF8B5
:1033F0002C0C807BC0B2C009C0B2002818D0DFF806
:103400001C0CC07A042803DB0020DFF8101CC872F3
:103410000023DFF8B006DFF8041CC97A425CDFF84D
:10342000A406DFF8F81BC97A415C022006F0BDFB58
:103430000120DFF8EC180870012014E052208DF80C
:103440000C002800C0B201900120009003ABA278CC
:1034500061785E2005F005FD132319223221042036
:1034600006F0A3FB002007B0BDE8F08F2DE9FE4F6A
:103470000025DFF82C040678DFF84C06007E8DF876
:103480000300DFF84406407E8DF80000DFF83806C0
:10349000807E8DF80200DFF83006C07E8DF80100D6
:1034A000DFF8F803F6B2875D5FF000095FF0010A0C
:1034B0005FF0000BFFB24FF4487000FB07F04FF4D1
:1034C000FA71B0FBF1F0801C80463300DBB252464B
:1034D000D2B24FF448713800C0B2FDF795FB00201E
:1034E0000400E4B2002C3AD105F094F80190019860
:1034F0009DF80010C840C00706D400213000C0B2BB
:10350000FDF7EDFA0120050001F0C0FE834601F051
:103510002AFFEDB2002D02D0012004000AE0654828
:10352000F6B20A2101FB06F108444088002801D1C7
:103530000220040001F02BFF584601F0ABFE5FFAB9
:1035400088F8B8F1000F02D0B8F1010801E00420BA
:10355000040002AA0021052001F0A2FFC1E700211A
:103560003000C0B2FDF7BBFAE4B2022C01DB002050
:1035700000E00120BDE8FE8F2DE9F04F87B0040088
:103580005FF0000BDFF84005007E8DF80800DFF8E3
:103590003805477EDFF8300590F81A80DFF82805F7
:1035A00090F81B905FF0000A0121022001F000FE5C
:1035B00001F06CFE824601F0D6FEDFF8580A008862
:1035C0004004400CDFF84C1A088001F0E0FE504641
:1035D00001F060FE00200500002C01D10120050053
:1035E00005F018F80600300030FA08F010F001007D
:1035F000C0B2002816D13000F84010F00100C0B26F
:1036000000280FD142208DF80C002800C0B2019094
:103610000120009003ABA27861785E2005F021FCC8
:1036200000203DE01BF1010B5FFA8BFBBBF1040FA7
:1036300003DAFFF71BFF0028F4D05FFA8BFBBBF126
:10364000040F18DA2800C0B2019000200090002377
:10365000A27861785F2005F004FC0220DFF8C01634
:103660000870DFF8A40C007850F02000DFF8981CF8
:103670000870012014E054208DF80C002800C0B21E
:1036800001900120009003ABA27861785E2005F0E4
:10369000E8FB132319223221042006F086FA0020C9
:1036A00007B0BDE8F08F0000A47200106072001037
:1036B000007102001C720010010001207047F0B57B
:1036C00087B004000D00002700200600002C01D167
:1036D000012006007F1CFFB2042F05DA2800C0B2CB
:1036E000FFF7EAFF0028F5D0FFB2042F0CDA300014
:1036F000C0B20190002000900023A27861785F2082
:1037000005F0AFFB012014E066208DF808003000C2
:10371000C0B201900120009002ABA27861785E20D7
:1037200005F09FFB132319223221042006F03DFAF5
:10373000002007B0F0BD2DE9F84F04005848477845
:103740005648FFB2C05D8DF80000DF4890F8008059
:10375000DD4840788DF801005FF000095FF0000B54
:1037600004F058FF06009DF801003100C14011F03F
:103770000100C0B200281FD1300030FA08F010F06C
:103780000100C0B2002817D13B00DBB200224FF489
:1037900048719DF80000FDF737FA002140F216301D
:1037A000FDF7D3FE050000213800C0B2FDF797F900
:1037B00001210120FDF7E2FE9DF800004FF4487161
:1037C00048434FF4FA71B0FBF1F0801C82463B0095
:1037D000DBB200224FF448719DF80000FDF714FAA7
:1037E00000200500EDB2002D3ED104F013FF0600CD
:1037F0009DF801003100C140C80706D500213800FE
:10380000C0B2FDF76CF90120814601F03FFD83460F
:1038100001F0A9FD5FFA89F9B9F1000F02D001208A
:1038200005000BE0DFF8AC0DFFB20A2101FB07F148
:1038300008444088002801D10220050001F0A7FDBE
:10384000584601F027FD5FFA8AFABAF1000F02D05C
:10385000BAF1010A01E0042005000DF10202002185
:10386000052001F01DFEBDE700213800C0B2FDF7C4
:1038700036F9EDB2022D01DB00200DE0E4B2002CA0
:1038800009D101210120FDF779FE002801D0012096
:1038900002E0002000E00120BDE8F28F5673001026
:1038A00054730010F0B587B004000D00002700200D
:1038B0000600002C01D1012006007F1CFFB2042F5E
:1038C00005DA2800C0B2FFF736FF0028F5D0FFB2B6
:1038D000042F0CDA3000C0B20190002000900023C9
:1038E000A27861785F2005F0BCFA012014E067201F
:1038F0008DF808003000C0B201900120009002ABAA
:10390000A27861785E2005F0ACFA132319223221E7
:10391000042006F04AF9002007B0F0BD2DE9F04F71
:1039200083B0002600275FF000084FF496695FF02F
:10393000000A5FF0010B6448007E8DF801006248C8
:10394000407E8DF803006048807E8DF800005E4860
:10395000C07E8DF80200002001905346DBB20022A9
:10396000494689B2DFF8700C5FFA8AFA10F80A004B
:10397000FDF74AF95B46DBB20022494689B2DFF81F
:10398000580C5FFA8BFB10F80B00FDF73DF9002097
:103990000400E4B2002C6BD104F03CFE05009DF85D
:1039A00002002900C140C80704D500215046C0B21A
:1039B000FDF795F89DF800002900C140C80706D51D
:1039C00000215046C0B2FDF78AF8012006009DF89C
:1039D00000002900C140C80709D4F6B2002E06D065
:1039E00000215846C0B2FDF77AF80120070036489A
:1039F000407E2900C140C80704D500215046C0B20E
:103A0000FDF76DF89DF801002900C140C8070BD5EE
:103A100000215846C0B2FDF762F800215046C0B2FE
:103A2000FDF75DF801208046FFB2002F04D15FFA58
:103A300088F8B8F1000F02D001200400A9E7DFF8F0
:103A4000940B5FFA8AFA0A2101FB0AF108444088C4
:103A500000280AD0DFF87C0B5FFA8BFB0A2101FB00
:103A60000BF108444088002893D10220040090E71D
:103A700000215046C0B2FDF732F800215846C0B2CE
:103A8000FDF72DF8E4B2022C18DB04F0C3FD0500AD
:103A90009DF801002900C14011F00100C0B20028CA
:103AA0000AD09DF800002900C14011F00100C0B209
:103AB000002801D0012002E0002000E00120BDE844
:103AC000FE8F000090000010B07100102DE9F04F43
:103AD00085B0040000275FF000085FF000091420A3
:103AE000ADF80C00DFF8580DE4B200EBC4004078EC
:103AF0008DF80600DFF8480DE4B200EBC40090F842
:103B000002A0DFF8400DE4B230F81400ADF80A006E
:103B1000DFF8C40A40788DF80400DFF82C0D4078F7
:103B20008DF8050000200490E4B2042C01DB002095
:103B3000F3E01420834604F06DFD0600300030FAF7
:103B40000AF0C00701D5012007009DF804004FF4DA
:103B50007A7148434FF47A71B0FBF1F0801C8DF814
:103B60000700962083462000C0B2009096230022D2
:103B7000BDF80A104FF4FA60FDF7B8F89DF805306B
:103B800000224FF47A719DF80400FDF73DF8002003
:103B90000500EDB2002D40F090805FFA8BFBBBF189
:103BA000000F02D0BBF1010B81E004F033FD0600F1
:103BB0009DF806003100C140C8070BD502AA0021BC
:103BC000142001F06DFC00212000C0B2FCF759FE6A
:103BD00001208146300030FA0AF0C00701D50120EB
:103BE0000700300030FA0AF0C0074CD4FFB2002FB3
:103BF00049D001208046DFF82404E4B26101084482
:103C0000807BC0F30010C0B200283CD1DFF80C0468
:103C1000E4B261010844807B50F01000DFF8FC132F
:103C2000E4B2620111448873DFF8F003E4B2610189
:103C300008444068DFF8E413E4B2620111444861CB
:103C4000DFF8D803E4B26101405CDFF8D013E4B2DE
:103C5000620111440876DFF8C403E4B26101405CFC
:103C6000401EDFF8B813E4B2620111444876082020
:103C7000DFF8A813E4B26201114488762100C9B2CA
:103C8000002006F0C1FA5FFA89F9B9F1000F02D0FD
:103C9000012005000BE0DFF8300DE4B20A2101FB42
:103CA00004F108440089002801D10220050002AA7D
:103CB0000021052001F0F4FB6BE700212000C0B2D9
:103CC000FCF7DFFD00210020FCF709FF02AA00211C
:103CD0000A2001F0E5FBD148E4B261010844807B91
:103CE000C0F30010C0B2002804D002AA00210A20AC
:103CF00001F0D6FBEDB2022D01DB00200DE020002B
:103D0000C0B200F04EFB002801D1022005E02100E6
:103D1000C9B2802006F014FA012005B0BDE8F08F8A
:103D2000737300102DE9F04F8BB004000D005FF0AD
:103D3000000BDFF80C0BEDB200EBC50090F803A010
:103D4000EDB2032D01DB002061E100200600002C14
:103D500001D10120060000208346002080461BF18F
:103D6000010B5FFA8BFBBBF1040F1CDA00F036FC91
:103D700080465FFA88F8B8F1000F14D05FFA88F82F
:103D8000B8F1010FEBD141208DF808003000C0B22E
:103D900001900120009002ABA27861785E2005F0CE
:103DA00060F8002033E15FFA8BFBBBF1040F15DBF9
:103DB00065208DF808003000C0B20190012000900D
:103DC00002ABA27861785E2005F04BF8132319222C
:103DD0003221042005F0E9FE002018E1DFF89C0DF7
:103DE0000078C0F3C000C0B200281BD0DFF88C0DF3
:103DF000007810F0F700DFF8841D0870FFF78EFDE3
:103E000000280FD041208DF808003000C0B201908A
:103E10000120009002ABA27861785E2005F021F8C5
:103E20000020F4E004F0F6FB0700380030FA0AF056
:103E3000C0070FD444208DF808003000C0B20190B4
:103E40000120009002ABA27861785E2005F009F8AD
:103E50000020DCE07148EDB269010844807BC0F3CA
:103E60008000C0B200280FD164208DF80800300017
:103E7000C0B201900120009002ABA27861785E2070
:103E800004F0EFFF0020C2E06448EDB2690108448D
:103E9000007C00280FD03B208DF808003000C0B215
:103EA00001900120009002ABA27861785E2004F0BE
:103EB000D8FF0020ABE05948EDB26901405C002812
:103EC0000FD163208DF808003000C0B201900120AE
:103ED000009002ABA27861785E2004F0C2FF00205F
:103EE00095E04E48EDB269010844807B10F0EF0088
:103EF0004A49EDB26A0111448873002081460020CE
:103F00008046002083461BF1010B5FFA8BFBBBF15F
:103F1000040F53DA04F07EFB0700380030FA0AF091
:103F2000C0070FD444208DF808003000C0B20190C3
:103F30000120009002ABA27861785E2004F091FF2E
:103F4000002064E05FFA89F9B9F1000F09D1280077
:103F5000C0B200F026FA002803D0002083460120DA
:103F600081465FFA89F9B9F1000FCCD05FFA88F881
:103F7000B8F1000F04D12800C0B2FFF7A7FD8046BA
:103F80005FFA88F8B8F1000F15D0FFF7C7FC0028DA
:103F900008D0DFF8E80B007810F0F700DFF8DC1B42
:103FA00008700BE0DFF8D40B007850F00800DFF861
:103FB000CC1B0870A7E700208146A4E704F008FEA8
:103FC0005FFA8BFBBBF1040F15DB53208DF8080063
:103FD0003000C0B201900120009002ABA27861785D
:103FE0005E2004F03EFF132319223221042005F045
:103FF000DCFD00200BE03000C0B2019000200090FA
:104000000023A27861785F2004F02BFF01200BB021
:10401000BDE8F08F907200107A730010786F001076
:104020002DE9F84F002600274FF496785FF000093D
:10403000DFF8A40540788DF80100DFF80408007E61
:104040008DF80000DFF8F80790F819A0DFF8F807FE
:1040500090F801B001220DF10201202006F090FF3E
:10406000002808D09DF80200002804D14FF41670F3
:104070008046012081465B46DBB20022414689B280
:104080009DF80100FCF7C0FD00200400E4B2002C04
:104090003BD104F0BFFA0500280030FA0AF0C0074F
:1040A00001D501200600280030FA0AF0C0070ED41E
:1040B000F6B2002E0BD05FFA89F9B9F1000F04D1E6
:1040C00000215846C0B2FCF70AFD01200700FFB2EC
:1040D000002F06D05FFA89F9B9F1000F01D1012054
:1040E0000400DFF8F0045FFA8BFB0A2101FB0BF1FF
:1040F000084440880028C9D1FFB2002F02D0012017
:104100000400C3E702200400C0E700215846C0B203
:10411000FCF7E5FC04F07EFA0500E4B2022C26DB95
:104120009DF800002900C14011F00100C0B2002834
:104130001BD0280030FA0AF010F00100C0B20028AD
:1041400013D15FFA89F9B9F1000F0CD0280000F003
:104150003DFC002807D1DFF8EC0B007850F002009E
:10416000DFF8E01B0870012014E0002012E05FFA85
:1041700089F9B9F1000F0CD0280000F027FC0028C5
:1041800007D1DFF8C00B007850F00200DFF8B41B55
:1041900008700120BDE8F28F2DE9F04186B00400DF
:1041A00000255FF0000800200600002C01D101204E
:1041B000060004F02FFA0700380000F007FC002882
:1041C0000FD142208DF808003000C0B201900120CC
:1041D000009002ABA27861785E2004F042FE0020DD
:1041E0003AE06D1CEDB2042D03DAFFF719FF002849
:1041F000F7D0EDB2042D20DA01F048F8804601F046
:10420000B2F8DFF8440B007810F09F0050F0200067
:10421000DFF8341B087001F0BAF8404601F03AF8B4
:104220003000C0B20190002000900023A278617895
:104230005F2004F016FE01200EE054208DF80800E7
:104240003000C0B201900120009002ABA2786178EA
:104250005E2004F006FE002006B0BDE8F0812DE9E6
:10426000F84F002600274FF4C878DB4890F80190FB
:10427000DFF8CC0590F81BA0DFF8CC0590F801B072
:104280005B46DBB20122414689B24846C0B2FCF728
:10429000BBFC00200400E4B2002C27D104F0BAF9E2
:1042A0000500280030FA0AF0C00701D501200600F9
:1042B000280030FA0AF0C00704D4F6B2002E01D06C
:1042C00001200700DFF890095FFA8BFB0A2101FB50
:1042D0000BF1084440880028DDD1FFB2002F02D046
:1042E00001200400D7E702200400D4E7002158464B
:1042F000C0B2FCF7F4FBE4B2022C01DB002000E0CA
:104300000120BDE8F28F00009C720010F0B587B06C
:104310000400002500200600002C01D10120060029
:1043200004F078F90700380000F050FB00280FD1A6
:1043300043208DF808003000C0B2019001200090A9
:1043400002ABA27861785E2004F08BFD002026E0AD
:104350006D1CEDB2042D03DAFFF781FF0028F7D0C2
:10436000EDB2042D0CDA3000C0B2019000200090B4
:104370000023A27861785F2004F073FD01200EE035
:104380005A208DF808003000C0B201900120009042
:1043900002ABA27861785E2004F063FD002007B0D4
:1043A000F0BD2DE9F04782B004000027DFF890044B
:1043B000E4B200EBC40090F80390DFF88804E4B2A4
:1043C00030F8140006005FF0000A2000C0B2FDF7CC
:1043D00057F800280AD0DFF8A40700780121A1408F
:1043E0008843DFF898170870012078E07F1CFFB23F
:1043F000052F6ADA2000C0B2009096230122310016
:1044000089B24FF4FA60FCF771FC2100C9B28C202C
:10441000FDF782F8050000212000C0B2FCF731FA58
:10442000EDB2002D46D12000C0B2009096230022AC
:10443000310089B24FF4FA60FCF758FC2100C9B290
:104440006420FDF782F800212000C0B2FCF719FAC1
:104450002100C9B240F6B83005F06EFF00F016FF3B
:10446000824600F080FFC820DFF8E018087000F0F6
:104470008EFF504600F00EFF00F008FF824600F06D
:1044800072FFDFF8C8080078002805D100F07FFF30
:10449000504600F0FFFEA9E700F079FF504600F01B
:1044A000F9FE04F0B7F88046404630FA09F0C0073C
:1044B000E2D49BE7DFF8C40600780121A1408843DD
:1044C000DFF8B8160870012009E0DFF8B0060078C0
:1044D0000121A1400843DFF8A41608700020BDE8C0
:1044E000F6872DE9F04104003B480678D648077866
:1044F0005FF0000800F0CAFE804600F034FF142090
:10450000DFF84818087000F042FF404600F0C2FE95
:104510003B00DBB20122210089B23000C0B2FCF7BF
:1045200073FB04F077F80500E80106D40021380099
:10453000C0B2FCF7D4FA01201FE000F0A7FE8046CD
:1045400000F011FFDFF80408007800280CD100F01B
:104550001EFF404600F09EFE00213800C0B2FCF76E
:10456000BEFA680108D405E000F011FF404600F0F3
:1045700091FED6E7012000E00020BDE8F08110B4F4
:104580000100DFF8CC07007E0B00C34013F00100F0
:10459000DFF8BC375B7E0C00DC4014F006031843E8
:1045A0000200D2B21000002809D0801E022808D9CB
:1045B000C01E0AD0401E04D0401E04D007E00020D8
:1045C00006E0012004E0022002E0032000E00420D5
:1045D00010BC70471C720010567300102DE9F04F8C
:1045E00083B0002600275FF000085FF000094FF459
:1045F000C870ADF80400DFF85C0740788DF8020061
:10460000914890F801A0DFF84807007E8DF800007F
:10461000DFF83C0790F81AB0DFF83407C07E8DF859
:10462000030003F0F7FF0500DFF82407007E2900F0
:10463000C14011F00700DFF81817C97E2A00CA40F0
:10464000D10011F0080108438DF801009DF8010028
:10465000002801D10020C4E09DF800002900C140DD
:1046600011F00100C0B2002809D0280030FA0BF088
:1046700010F00100C0B2002801D00120B1E09DF887
:104680000100002847D09DF80100042843DA534672
:10469000DBB20122BDF804109DF80200FCF7B4FA69
:1046A00000200400E4B2002C2AD103F0B3FF05007F
:1046B000280030FA0BF0C0070DD50DF106020021DD
:1046C0000A2000F0EDFE00215046C0B2FCF707FAC8
:1046D0000120040014E09DF803002900C140C80730
:1046E00006D500210120FCF7FAF90320040007E0B9
:1046F000DFF8640580890028D4D102200400D1E7C6
:1047000000215046C0B2FCF7EAF9E4B2032C02DA09
:104710002000C0B265E00020070000200600002055
:1047200080469DF800002900C140C80701D401203F
:1047300081465346DBB20022BDF804109DF802000A
:10474000FCF762FA00200400E4B2002C42D103F02E
:1047500061FF0500280030FA0BF0C00701D50120E9
:104760000600280030FA0BF0C00709D4F6B2002E7C
:1047700006D000215046C0B2FCF7B1F90120070075
:104780009DF800002900C140C8070AD55FFA89F9E1
:10479000B9F1000F05D000210120FCF7A0F901209C
:1047A0008046FFB2002F04D15FFA88F8B8F1000FFD
:1047B00002D001200400C7E7DFF89C045FFA8AFA00
:1047C0000A2101FB0AF1084440880028BCD10220DC
:1047D0000400B9E700215046C0B2FCF780F9200080
:1047E000C0B2BDE8FE8F10B40100DFF86405007EA2
:1047F0000B00C34013F00100DFF854359B7E0C0022
:10480000DC40630013F0060318430200D2B210002C
:10481000002809D0801E022808D9C01E0AD0401ED8
:1048200004D0401E04D007E0002006E0012004E090
:10483000022002E0032000E0042010BC70470000CA
:10484000B071001060720010547300102DE9F04F29
:1048500083B0002600275FF000084FF4C8795FF0AE
:10486000000ADFF8F0045FFA8AFA10F80A008DF8FF
:104870000200DFF8DC04007E8DF80100DFF8D004D0
:1048800090F81AB003F0C6FE0500DFF8C404007EFD
:104890002900C14011F00100DFF8B414897E2A001C
:1048A000CA40510011F0060108438DF800009DF840
:1048B0000000002801D1002083E09DF800000128BD
:1048C00001D103207DE09DF80000072801D10420DC
:1048D00077E09DF801002900C14011F00100C0B24D
:1048E000002809D0280030FA0BF010F00100C0B207
:1048F000002801D0012064E0DFF85404007E290084
:10490000C140C80701D5012080465346DBB20122D1
:10491000494689B29DF80200FCF776F900200400B0
:10492000E4B2002C46D101AA00211E2000F0B8FDFF
:1049300003F070FE0500280030FA0BF0C00701D527
:10494000012006009DF801002900C140C8070BD5D1
:104950005FFA88F8B8F1000F06D100215046C0B2C6
:10496000FCF7BDF801208046280030FA0BF0C007A4
:1049700008D4F6B2002E05D000210020FCF7AFF8D5
:10498000012007005FFA88F8B8F1000F02D1FFB2EA
:10499000002F02D001200400C2E7AF485FFA8AFA74
:1049A0000A2101FB0AF1084440880028B8D10220FE
:1049B0000400B5E700215046C0B2FCF790F8200093
:1049C000C0B2BDE8FE8F00008871001010B4010075
:1049D000DFF87C23127E0B00D34013F00702DFF8D0
:1049E00070331B7F0C00DC4014F008031A431000E6
:1049F000C0B210BC704730B40100DFF85403027E2F
:104A0000DFF84C03437EDFF84803847EDFF8400381
:104A1000C57E0800E04010F00100C0B2002814D1AB
:104A20000800E84010F00100C0B200280DD10800D5
:104A3000E84010F00100C0B2002806D10800E840AC
:104A400010F00100C0B2002801D0012000E00020D9
:104A500030BC704738B500200400E4B2032C4CDAB7
:104A6000BD48E4B261010844807BC0F38000C0B25D
:104A7000002842D0B848E4B261010844807BC0F30A
:104A8000C000C0B2002838D1B348E4B26101084484
:104A9000007C002831D1B048E4B261010844807B39
:104AA000C0F34010C0B2002827D0A6480078C0F359
:104AB0004000C0B200281ED0A248007810F0FD00CF
:104AC000A04908702100C9B20020FFF72BF9002887
:104AD00011D00020FFF760FB00280CD09C48E4B206
:104AE00000EBC400007E05009C4800680121A9403D
:104AF00088439A490860641CAFE731BD80B5964889
:104B0000807BC0F38000C0B2002835D09248807B03
:104B1000C0F3C000C0B200282ED18F48007C00280E
:104B20002AD18D48807BC0F34010C0B2002823D02A
:104B300040208B49087083480078C0F34000C0B221
:104B4000002819D07F48007810F0FD007D490870DA
:104B50000020FDF791FB00280ED00020FDF77AFD24
:104B6000002809D07D4800680121794A92F918206F
:104B7000914088437949086001BD0000A872001087
:104B800010B57548807BC0F38000C0B2002838D0D3
:104B90007148807BC0F3C000C0B2002831D16E489C
:104BA000007C00282DD16C48807BC0F34010C0B23F
:104BB000002826D041206A4908706248007810F029
:104BC000010000281DD05F48007810F0FE005D490C
:104BD00008700020FDF77BFE0400C0B2002810D052
:104BE000E4B2022C0020FEF773F8002809D05B48DD
:104BF00000680121564A92F918209140884357498C
:104C0000086010BD10B54120554908704D48007826
:104C100010F0010000281DD04A48007810F0FE0076
:104C2000484908700020FEF786FA0400C0B2002848
:104C300010D0E4B2022C0020FEF752FB002809D06D
:104C4000464800680121424A92F918209140884361
:104C50004249086010BD00001C72001070B5394850
:104C60000078C0F3C000C0B2002817D03D48FCF760
:104C7000A7FE00280BD00020FDF7A0F900285FD187
:104C80003048007810F0F7002E49087058E02D48A1
:104C9000007810F0F7002B49087051E02E48807B17
:104CA000C0F38000C0B200284AD02B48807BC0F3FC
:104CB000C000C0B2002843D122480078C0F3800071
:104CC000C0B200283CD02848007800280AD1002033
:104CD000FCF776FE002805D11A48007810F0FB009A
:104CE000184908700120204908701B48007C0028E2
:104CF00026D117488079050003F08CFC0600164881
:104D0000807BC0F34010C00706D43000E84010F0AC
:104D10000100C0B2002813D10020FCF7F1FF04000D
:104D2000E4B2002C03D100200F49087008E0E4B27F
:104D3000012C05D10348007810F0FB0001490870F0
:104D400070BD00009C720010987200107873001003
:104D5000B071001056730010786F0010947200103C
:104D60007573001048710010777300102DE9FC4F27
:104D700083B004000D0000200190A4B2002C06D0E6
:104D8000022C04D012D3042C10D00FD315E09DF8C0
:104D90003800012809D1BDF83C00002803D0BDF837
:104DA0003C00012801D10020E8E108E09DF838002E
:104DB000012801D10020E1E101E00020DEE1BDF8A1
:104DC000100030F0100080B2012806D0022808D070
:104DD00004280AD008280CD00FE002208DF800002B
:104DE0000DE000208DF8000009E003208DF80000A0
:104DF00005E001208DF8000001E00020BEE1BDF8D3
:104E00004000002805D0022838D033D3032839D0F9
:104E10003CE000208DF8010000F038FA019000F02D
:104E2000A2FABDF80C0000280FD1A4B2600100F175
:104E3000005010F51C200068A843A4B2610101F1E4
:104E4000005111F51C2108600EE0A4B2600100F1D0
:104E5000005010F51C2000682843A4B2610101F144
:104E6000005111F51C21086000F091FA019800F042
:104E700011FA0DE001208DF8010009E002208DF803
:104E8000010005E003208DF8010001E0002075E13C
:104E900000F0FCF9019000F066FABDF81000C0B215
:104EA000000910F0010000280DD0A4B2DFF8A8031B
:104EB00010EB840000682843A4B2DFF89C1311EBC8
:104EC000840108600CE0A4B2DFF88C0310EB8400CE
:104ED0000068A843A4B2DFF8801311EB84010860D6
:104EE00000F055FA019800F0D5F9A4B2DFF86C0390
:104EF00010EBC40000680700A4B2DFF8640310EBF5
:104F0000C40000688146A4B2E00000F1804010F5C2
:104F1000303000688046A4B2DFF8480310EBC400CC
:104F200000688246002083465FFA8BFBBBF1100FBE
:104F300052D25FFA8BFB5FEA4B000600012010FAA9
:104F40000BF000280AD0012010FA0BF028400121B4
:104F500011FA0BF1884201D1012000E00020002865
:104F60000FD00320B04087430320B04038EA000848
:104F70009DF80000B04007439DF80100B04050EAA2
:104F8000080801201BF11001884000280CD00120E6
:104F90001BF110018840284001211BF110029140B3
:104FA000884201D1012000E00020002811D0032018
:104FB000B04039EA00090320B0403AEA000A9DF8FF
:104FC0000000B04050EA09099DF80100B04050EAE5
:104FD0000A0A1BF1010BA7E700F058F9019000F055
:104FE000C2F9A4B2DFF8740210EBC4000760A4B2E7
:104FF000DFF86C0210EBC400C0F80090A4B2E0002F
:1050000000F1804010F53030C0F80080A4B2DFF825
:10501000540210EBC400C0F800A000F0B8F90198E9
:1050200000F038F9A4B2002C03D0A4B2022C40F056
:10503000A48000F02BF9019000F095F99DF838005C
:10504000012840F07F80BDF83C00002806D00228EF
:1050500025D015D3042856D03BD372E0DFF80802E0
:105060000068C5F383218843DFF8FC110860DFF88E
:10507000FC010068C5F3832108437C49086077E0A0
:1050800079480068C5F383218843774908607748E9
:105090000068C5F3832188437449086068E0A4B2BE
:1050A000734810EB041000682843A4B2704911EB58
:1050B000041108606C480068C5F3832108436A49FD
:1050C00008606A480068C5F383210843674908609F
:1050D0004EE0A4B2674810EB041000682843A4B265
:1050E000644911EB041108605F480068C5F383212F
:1050F00008435D4908605D480068C5F38321884323
:105100005A49086034E0A4B2594810EB0410006812
:105110002843A4B2564911EB04110860A4B25548C3
:1051200010EB041000682843A4B2524911EB04119B
:1051300008604D480068C5F3832108434A49086068
:1051400016E015E0A4B24A4810EB04100068A8432A
:10515000A4B2474911EB04110860A4B2454810EB12
:1051600004100068A843A4B2424911EB041108607E
:1051700000F00DF9019800F08DF8012005B0BDE8B0
:10518000F08F70B504000D000026A4B2052C0EDAD5
:1051900000F07CF8060000F0E6F8A4B2364810EB08
:1051A0004410056000F0F3F8300000F073F870BDB3
:1051B00070B504000D000026A4B2052C0EDA00F034
:1051C00065F8060000F0CFF8A4B22C4810EB4410AC
:1051D000056000F0DCF8300000F05CF870BD2DE9EF
:1051E000F04104000D005FF00008A4B2052C22DAA3
:1051F000A4B2234810EB4410006828400700A4B272
:105200001F4810EB4410006835EA0000060000F06B
:105210003DF8804600F0A7F8A4B2174810EB441000
:105220000760A4B2154810EB4410066000F0AFF818
:10523000404600F02FF8BDE8F081010089B2052951
:1052400001DB002006E089B20D4810EB4110006838
:10525000020010007047000054C0024040C00240ED
:1052600044C0024004C0024048C10F404CC10F403E
:1052700090800240948002401CC0092018C0092080
:1052800014C0092072B6704762B67047EFF3108001
:1052900072B6704780F31088704730BF704720BFE8
:1052A0007047B0FA80F0704790FAA0F0B0FA80F042
:1052B000704790FAA0F0704780B500F08DF800F0CC
:1052C00092F800F085F801BDFEE710B50024FFF765
:1052D000DDFF040000F047F81021DFF8A00102F024
:1052E00070FB00F054F82000FFF7D4FF10BD10B59C
:1052F00005F0FFFC0400200010BDDFF884110860F9
:10530000704738B5002500F00CF80400FFF7BEFF29
:10531000050000205B4908602800FFF7BBFF200064
:1053200032BD70B50026FFF7B1FF06005548006892
:1053300004003000FFF7AEFF200000F090F80500F9
:10534000280070BD70B50026FFF7A0FF06004E488C
:10535000006804003000FFF79DFF200000F07FF898
:105360000500280070BD80B548480088401C4749AA
:10537000088047480088002803D105F0BAFC454959
:10538000086043480088401C4149088001BD10B5B1
:105390003F480088401E3E4908803D48008800285C
:1053A00015D105F0A6FC3C4908603B480068394926
:1053B0000968401A040033480068A04201D231480D
:1053C000046031480068A04201D22F48046010BD3B
:1053D00080B5FFF77AFF01BD80B50020284908603D
:1053E00005F073FC01BD70B5002600202749088038
:1053F000002027490880002026490860002026490F
:10540000086000201F49086000201F490860002034
:105410002249086000200400FFF738FF0600002042
:105420000500ADB2002D0BD1002016490860FFF732
:105430009AFFFFF7ACFF1348006804196D1CF0E7F2
:105440000120B4FBF0F01549086000200D49086008
:1054500000200D4908603000FFF71CFF70BD0100FF
:1054600008000E4A1268824203D20C4A1268801A5F
:1054700001E00022100070470000000030720010B0
:1054800078720010887200108C7200105073001037
:10549000527300107C720010807200108472001031
:1054A000F8B504000D0016000027DFF8DC020078D4
:1054B000002803D047F27520308082E0DFF8CC026C
:1054C0000078002803D046F66350308079E0ADB212
:1054D0002800002805D0022803D0042808D0082876
:1054E00007D1002C03D147F27E20308069E004E030
:1054F00003E045F62560308063E0FFF7C7FE070054
:10550000FFF731FFDFF884020078401CDFF87C12DF
:105510000870DFF878020078012801D106F07BFBE3
:10552000FFF735FF3800FFF7B5FE0120DFF8601206
:10553000096881F8360033002A0092B22100DFF8B2
:105540005002006806F0B5FC3088002818D0FFF73C
:105550009DFE0700FFF707FFDFF830020078401ECE
:10556000DFF828120870DFF824020078002801D143
:1055700006F05BFBFFF70BFF3800FFF78BFE20E028
:10558000DFF80C02006806F0F4FAFFF77FFE070070
:10559000FFF7E9FEDFF8F4010078401EDFF8EC11B8
:1055A0000870DFF8E8010078002801D106F03DFB23
:1055B000FFF7EDFE3800FFF76DFE05F070FE0020EE
:1055C0003080F1BD2DE9F04F83B005000E001700CB
:1055D00098460C9CDDF834905FF0000BDFF8A801D2
:1055E0000078002804D047F27520A9F80000AEE04A
:1055F000DFF898010078002804D046F66350A9F837
:105600000000A4E014F00E00ADF80400BDF80400A2
:10561000002805D0022803D0042813D0082812D16E
:10562000B8F1000F0DD1BFB2002F0AD1B6B2002ED3
:1056300007D1ADB2002D04D147F27E20A9F80000B9
:1056400085E005E004E045F62560A9F800007EE06D
:10565000504800688246ADB24FF46160B6B23C215A
:1056600001FB06F100FB0510BFB238184FF4FA71C8
:10567000B1FBFAF111EB080101FB0AF14FF47A7268
:10568000B1FBF2F10AFB00100090009800285AD0FC
:10569000FFF7FCFD8346FFF766FE3C480078401CA0
:1056A0003A49087039480078012801D106F0B3FA68
:1056B000FFF76DFE5846FFF7EDFD012034490968FC
:1056C00081F836004B46BDF8042000993048006848
:1056D00006F0EFFBB9F80000002815D0FFF7D6FD63
:1056E0008346FFF740FE29480078401E274908708E
:1056F00026480078002801D106F097FAFFF747FE08
:105700005846FFF7C7FD22E02148006806F031FA4D
:10571000FFF7BCFD8346FFF726FE1C480078401EBD
:105720001A49087019480078002801D106F07DFA5E
:10573000FFF72DFE5846FFF7ADFD05F0B0FD002048
:10574000A9F8000003E047F27E20A9F80000BDE8B8
:10575000F78F30B585B006F0BDFE05F0CAFA04003B
:1057600004A80390029400200190002000900023E0
:1057700000220948094909780C2569430144084871
:1057800006F002FF05B030BD7B730010807300107F
:105790004873001088410100504000107D730010D4
:1057A0005449434B10B504005FF04020006850F0AE
:1057B00001005FF040210860FBF76AFF10BD10B5E3
:1057C0000400DFF8280D006850F00100DFF81C1D10
:1057D0000860FAF781FF10BD10B50400DFF8100D66
:1057E000006850F00100DFF8081D0860042005F093
:1057F0003EFA10BD10B50400DFF8F80C006850F058
:105800000100DFF8F01C0860FBF709FB10BD10B5C4
:105810000400DFF8E40C0068C0070AD5DFF8D80CF4
:10582000006850F00100DFF8D01C0860FAF792FF22
:105830000EE0DFF8C40C0068800709D5DFF8B80C6B
:10584000006850F00200DFF8B01C0860FAF782FF31
:1058500010BD80B504F08CF9FAF752FC01BD10B50B
:10586000012007F04FF90400DFF84C0B006850F0FE
:105870000200DFF8441B08600220DFF8401B0860CC
:10588000FF205FF0402108600020DFF8341B086033
:105890000020DFF8301B0860DFF82C0BB4FBF0F0C1
:1058A000401EDFF8C01B08601820DFF8BC1B086032
:1058B0000320DFF8B81B08600120DFF8001B086038
:1058C0000023DFF89C2C0121002007F035FA01218C
:1058D000002007F09FF910BD10B5012007F012F964
:1058E0000400DFF8D40A006850F00400DFF8C81A9A
:1058F00008600220DFF8781B0860FF20DFF8EC1B4F
:1059000008600020DFF8F41B08600020DFF8F01BBF
:105910000860DFF8B40AB4FBF0F0401EDFF8E41BC7
:1059200008604520DFF8E01B08600320DFF8DC1B7F
:1059300008600023DFF82C2C0221002007F0FCF97E
:105940000221002007F066F910BD10B5012007F014
:10595000D9F80400DFF8600A006850F48000DFF82E
:10596000581A08600220DFF8001C0860FF20DFF8EA
:10597000801B08600020DFF8F41B08600020DFF8BF
:10598000F01B0860DFF8EC0BB4FBF0F0401EDFF812
:10599000E81B086040F6B730DFF8E01B0860032022
:1059A000DFF8DC1B08600020DFF8BC1B0860002368
:1059B000DFF8602C0321002007F0BEF9032100204E
:1059C00007F028F910BD10B5012007F09BF804007E
:1059D000DFF8E409006850F40000DFF8DC19086023
:1059E0000220DFF8341C0860FF20DFF8081B086085
:1059F0000020DFF8281C08600020DFF8241C086065
:105A00004FF47A70B4FBF0F0401EDFF8181C086009
:105A10000920DFF8141C08600320DFF8101C086060
:105A20000120DFF8F41B08600023DFF8042C0421B8
:105A3000002007F081F90421002007F0EBF810BDE9
:105A400010B5012007F05EF804000220DFF8E41B27
:105A50000860FF20DFF8A01A08600020DFF8D81BDC
:105A600008600020DFF8D41B0860DFF8080BB4FBE7
:105A7000F0F0401EDFF8C81B086040F2CF70DFF87E
:105A8000C41B086040F2E730DFF8BC1B08600B2045
:105A9000DFF8B81B08600023DFF8B42B09210020D1
:105AA00007F04AF90921002007F0B4F810BDE0B56D
:105AB000002002900020019000200090012301228C
:105AC00001210220FFF752F901210220FFF770FBAC
:105AD00007BD30B4030008244FF6FF7528001D7879
:105AE00068405B1C08252C00C50703D580B2400820
:105AF000504001E080B24008641EE4B2002CF3D1B3
:105B0000491EC9B20029EAD180B230BC7047F8B54D
